:020000040800F2
:10000000583600204D010008892E00088B2E00086C
:100010008F2E0008932E0008972E00080000000085
:100020000000000000000000000000009B2E0008FF
:100030009D2E0008000000002F6E00089F2E000873
:1000400067010008670100086701000875320008B1
:100050006701000867010008873000086701000891
:10006000670100086701000867010008CB2E00083F
:1000700067010008670100086701000867010008C0
:100080006701000867010008AF2E0008670100083B
:1000900067010008670100086701000867010008A0
:1000A0006701000867010008670100086701000890
:1000B0004532000867010008670100086701000871
:1000C0006701000867010008670100086701000870
:1000D00067010008F52E00086701000867010008A5
:1000E0000B310008FD3200086701000867010008B5
:1000F0006701000867010008670100086701000840
:10010000670100086701000867010008670100082F
:10011000670100086701000867010008670100081F
:10012000670100086701000867010008670100080F
:10013000DFF80CD006F07CFF00480047552E000881
:10014000583600200138FDD170470000064880472E
:1001500006480047FEE7FEE7FEE7FEE7FEE7FEE7AC
:10016000FEE7FEE7FEE7FEE74F0200083101000868
:100170000CB50020019000906C48006840F480307D
:100180006A49086000BF6948006800F400300090C8
:100190000198401C0190009818B90198B0F5A06F23
:1001A000F1D16248006800F4003010B101200090E5
:1001B00001E0002000900098012843D15C480068CD
:1001C00040F010005A4908600846006820F003001B
:1001D00008600846006840F0020008605348406824
:1001E000524948600846406848600846406840F404
:1001F000806048600846406820F47C1048600846EB
:10020000406840F4E81048600846006840F080709C
:10021000086000BF4548006800F000700028F9D071
:100220004248406820F00300404948600846406862
:1002300040F00200486000BF3C48406800F00C00FD
:100240000828F9D10CBD10B5FFF792FF10BD10B50D
:100250003648006840F001003449086008464068AC
:10026000344908403149486008460068324908402E
:100270002E4908600846006820F48020086008467F
:10028000406820F4FE0048604FF41F008860FFF7CC
:10029000DAFF4FF000602949086010BD10B5002159
:1002A00000200022214B5B6803F00C0121B10429DE
:1002B00006D0082928D107E0214B224C236027E0F3
:1002C0001F4B204C236023E0184B5B6803F4701035
:1002D000164B5B6803F48032022303EB904022B993
:1002E000194B4343174C23600DE0104B5B6803F43C
:1002F000003323B1144B4343124C236003E0104BF3
:100300004343104C236003E00D4B0E4C236000BFB1
:1003100000BF064B5B68C3F303130C4CE15C094B55
:100320001B68CB40074C236010BD0000001002404A
:10033000002002400000FFF8FFFFF6FE08ED00E09D
:1003400000127A000000002000093D000400002097
:1003500010B50446FA48844208D10121401501F045
:1003600079FB0021601501F075FB17E0F548844228
:1003700008D10121001501F06DFB0021201501F0CD
:1003800069FB0BE0F048844208D10121C80301F069
:1003900061FB00214FF4004001F05CFB10BD30B563
:1003A0000246002000235068E84C20400D790C687C
:1003B00044EA0524204350609068E54C2040D1E990
:1003C00002542C434D7944EA450420439060D06A9E
:1003D00020F470000C7C641EE4B2234340EA035016
:1003E000D06230BD00210160017141718160C16046
:1003F00001210174704721B1826842F001028260DC
:1004000003E0826822F001028260704721B18268B5
:1004100042F48072826003E0826822F4807282601B
:10042000704710B50023CBB21AB144681C43446036
:1004300002E044689C43446010BD816841F00801BB
:1004400081607047014600208A6802F008020AB104
:10045000012000E000207047816841F004018160C4
:100460007047014600208A6802F004020AB10120A8
:1004700000E00020704721B1826842F4A00282604F
:1004800003E0826822F4A0028260704701460020E7
:100490008A6802F480020AB1012000E0002070475F
:1004A00010B50A4600210023416821F46041531E23
:1004B00041EA4331416010BD21B1426842F400621B
:1004C000426003E0426822F4006242607047F0B587
:1004D00004460D4600200021092D11DDE068A5F13C
:1004E0000A0606EB4607072606FA07F18843A5F138
:1004F0000A0606EB460603FA06F10843E0600CE044
:10050000206905EB4507072606FA07F1884305EB46
:10051000450603FA06F108432061072A0FDA606BEB
:10052000561E06EB86071F2606FA07F18843561E5D
:1005300006EB860605FA06F10843606322E00D2A01
:100540000FDA206BD61F06EB86071F2606FA07F187
:100550008843D61F06EB860605FA06F1084320639A
:1005600010E0E06AA2F10D0606EB86071F2606FAE8
:1005700007F18843A2F10D0606EB860605FA06F19F
:100580000843E062F0BD21B1826842F480128260CB
:1005900003E0826822F48012826070470146C86CD2
:1005A00080B2704766484C300068704721B142689D
:1005B00042F48062426003E0426822F4806242605A
:1005C000704721B1426842F48052426003E04268C1
:1005D00022F48052426070470A460021816821F46B
:1005E000E04111438160704721B1826842F40042CA
:1005F000826003E0826822F400428260704721B189
:10060000826842F40212826003E0826822F40212DD
:1006100082607047014600208A6802F400120AB125
:10062000012000E000207047F0B504461546002088
:1006300000220026092911DDE068A1F10A0707EB75
:10064000470C072707FA0CF29043A1F10A0707EBC2
:10065000470703FA07F21043E0600CE0206901EB62
:10066000410C072707FA0CF2904301EB410703FA0C
:1006700007F210432061A06BC0F30156EF1C06F196
:10068000010CA7EB0C0707EB870C1F2707FA0CF2EE
:100690009043EF1C06F1010CA7EB0C0707EB870753
:1006A00001FA07F21043A063F0BD10B50A4600211D
:1006B0000023816B21F44011531E41EA03518163F1
:1006C00010BD08B5002300930090009B0B440093DD
:1006D000009B1A6008BD08B50246002000900092F9
:1006E00001F12800009B184400900098006880B237
:1006F00008BD0A4600214168164B1940114341606C
:1007000070474162826270470A460021416821F0C9
:100710001F0111434160704740B109490831096820
:1007200041F40001064A0832116007E0044908312B
:10073000096821F40001024A083211607047000084
:100740000024014000280140003C0140FFFEF0FF72
:10075000FDF7F1FFFFFD3FFF0246002013680B404D
:100760000BB1012000E000207047CA4302607047CF
:1007700070B502460020002300240B125568CEB24B
:1007800005EA060415681D4015B10CB1012000E012
:10079000002070BD00220A12D3430360704700009E
:1007A00010B5012001F070F9002001F06DF910BDC5
:1007B0002A49086070472949091F0860704727497E
:1007C00084310860704701460020254A10884FF6A2
:1007D0007F4210400843224A1080704701460020A3
:1007E0001F4A10884FF68072104008431C4A108040
:1007F000704708B500220092194A2C3A0092009ADC
:1008000002440092009A116008BD08B5014600201C
:10081000009013482C3800900098084400900098ED
:10082000008808BD0D489C300068C0B270470C4875
:100830000830008840F001000949083108807047FD
:100840000648A0300068C0B27047054808300088EC
:1008500040F00200024908310880704704860D42CA
:100860002C6C004010B50121480701F000F900216F
:100870004FF0005001F0FBF810BD30B5002200230E
:100880005A4C226840F6FE748440A243D1E90045E8
:100890002C438D682C43CD6844EA050303FA00F429
:1008A0002243524C226030BD0021016041608160D2
:1008B000C160704739B14D4A1268012383401A4321
:1008C0004A4B1A6006E0494A1268012383409A4362
:1008D000464B1A60704741B1444A12684FF4805346
:1008E00083401A43414B1A6007E0404A12684FF4B4
:1008F000805383409A433D4B1A60704710B551B105
:100900003A4A121D126804090123A3401A43374BC7
:100910001B1D1A6009E0354A121D126804090123E3
:10092000A3409A43314B1B1D1A6010BD40B12F49A3
:10093000091D096841F003012C4A121D116007E0EE
:100940002A49091D096821F00301284A121D116076
:10095000704710B53AB1254B1B6801FA00F42343E8
:10096000224C236006E0214B1B6801FA00F4A343EC
:100970001E4C236010BD08B5002200921B4A009255
:1009800000F10802009B1A440092009A116008BD11
:1009900008B500220092154A009200F11402009B53
:1009A0001A440092009A116008BD30B5002400235B
:1009B000082802D142EA012401E042EA01440B4B3B
:1009C00000F120052B441C6030BD08B50146002015
:1009D0000090064800902C2000EB9100009A1044F3
:1009E00000900098006880B208BD000000740040CC
:1009F00001684FF6FE721140016000210160416004
:100A00008160C1608D49884208D18C4908394968A4
:100A100041F00F01894A083A51608AE08749143150
:100A2000884208D185490839496841F0F001834A74
:100A3000083A51607DE081492831884208D17F49D8
:100A40000839496841F470617C4A083A516070E0A5
:100A50007A493C31884208D178490839496841F4DB
:100A60007041764A083A516063E0744950318842D7
:100A700008D172490839496841F470216F4A083A2F
:100A8000516056E06D496431884208D16B4908399C
:100A9000496841F47001694A083A516049E0674980
:100AA0007831884208D165490839496841F0706158
:100AB000624A083A51603CE06149884206D1011F10
:100AC000096841F00F01021F116032E05C491431E6
:100AD000884208D15A49091F096841F0F001584A73
:100AE000121F116025E056492831884208D1544927
:100AF000091F096841F47061514A121F116018E022
:100B00004F493C31884208D14D49091F096841F4D9
:100B100070414B4A121F11600BE049495031884225
:100B200007D14749091F096841F47021444A121F3F
:100B30001160704710B50022026847F6F0739A43BF
:100B40000C6A8B6823430C6923434C6923438C69EB
:100B50002343CC6923434C6A23438C6A23431A43BF
:100B60000260CB6843600B6883604B68C36010BD54
:100B70000021016041608160C1600161416181616A
:100B8000C161016241628162704721B1026842F035
:100B90000102026004E002684FF6FE731A40026030
:100BA00070471AB103680B43036002E003688B438C
:100BB00003607047416070470146486880B27047E3
:100BC00001460020002201F080531BB11C4B083B62
:100BD0001A6802E0194B083B1A6802EA01030BB1DC
:100BE000012000E00020704700F0805119B1144945
:100BF000091F086002E01149083948607047014642
:100C00000020002201F080531BB10D4B083B1A68F5
:100C100002E00A4B083B1A6802EA01030BB101200B
:100C200000E00020704700F0805119B10449091F0D
:100C3000086002E001490839486070470800024036
:100C400008040240002044490860091D0860091D8D
:100C50000860091D086041483F4914310860704729
:100C600000213D498279002A3AD00A461268036879
:100C70009A430B461A600A1D126803689A430B1DBB
:100C80001A60027911440A6803681A430A60324AFA
:100C90000832126803689A432F4B08331A601A1DF2
:100CA000126803689A432C4B0C331A604279102A5D
:100CB0000ED11A1F126803681A43274B08331A60B3
:100CC0001A1D126803681A43234B0C331A600DE097
:100CD0002149427911440A6803681A430A6005E011
:100CE000027911440A6803689A430A607047002138
:100CF000016001710C214171002181717047164919
:100D0000103109680143144A1032116070470146DE
:100D10000020114A143212680A400AB1012000E092
:100D2000002070470C4914310860704701460020CC
:100D30000022094B1B6803EA0102074B14331B68AE
:100D40000B4013B10AB1012000E0002070470249B6
:100D5000143108607047000000040140FFFF0F00DD
:100D600001460020FE4A106800F038000843106079
:100D70007047FB49096821F00801F94A11601146E2
:100D80000968014311607047F549096821F01001B5
:100D9000F34A116011460968014311607047F14838
:100DA000EF494860F04848607047EE48EC494860B9
:100DB000ED4848607047EA48006940F08000E84923
:100DC00008617047E648006940F08000E449086126
:100DD00070470420E249C96801F0010109B101200E
:100DE0000EE0DF49C96801F0040109B1022007E003
:100DF000DB49C96801F0100109B1032000E00420BB
:100E0000704700B502460423FFF7E3FF034603E003
:100E1000FFF7DFFF0346521E012B01D1002AF7D155
:100E200002B90523184600BD30B5044604254FF429
:100E30003020FFF7E6FF0546042D17D1C8480069AA
:100E400040F00200C649086108464461006940F06C
:100E5000400008614FF43020FFF7D3FF0546C0483B
:100E6000006941F6FD710840BD490861284630BD62
:100E700010B504244FF43020FFF7C3FF0446042CC0
:100E800016D1B748006940F00400B549086108462A
:100E9000006940F0400008614FF43020FFF7B1FFD7
:100EA0000446AF48006941F6FB710840AC4908614F
:100EB000204610BD00B502460423FFF78AFF034613
:100EC00003E0FFF786FF0346521E012B01D1002AE3
:100ED000F7D102B90523184600BD10B504244FF41C
:100EE0003020FFF7E7FF0446042C16D19C48006928
:100EF00040F004009A4908610846006940F040004B
:100F000008614FF43020FFF7D5FF0446944800698C
:100F100041F6FB71084092490861204610BD00204F
:100F20008F49C96901F0020109B1012000E00020E8
:100F3000704730B5A5250424FFF7F1FF00B1002567
:100F40004FF43020FFF75DFF0446042C3AD185486A
:100F500083498860844888600846006940F0200022
:100F600008610846006940F0400008614FF43020F5
:100F7000FFF747FF0446042C1BD17948006941F66E
:100F8000DF710840764908610846006940F01000AA
:100F9000086176480580E002FFF733FF0446052C20
:100FA00010D06F48006941F6EF7108406C49086144
:100FB00008E0052C06D06A48006941F6EF71084048
:100FC00067490861204630BD78B506460C460425C1
:100FD00000200090E802FFF714FF0546042D24D1FD
:100FE0005F48006940F001005D4908613480E80213
:100FF000FFF707FF0546042D10D1B01C0090200C10
:1010000000990880E802FFF7FCFE05465448006995
:1010100041F6FE7108405249086106E050480069F7
:1010200041F6FE7108404E490861284678BD70B50A
:1010300004460D460426F002FFF7E3FE0646042EA2
:1010400011D14748006940F00100454908612580F9
:10105000F002FFF7D6FE06464148006941F6FE71F0
:1010600008403F490861304670BD70B505460E46E0
:101070000424E002FFF7C5FE0446042C17D13948CA
:1010800037498860384888600846006940F0100099
:1010900008612E80E002FFF7B4FE0446052C06D05E
:1010A0002F48006941F6EF7108402D49086120463C
:1010B00070BD2DE9F04304464FF6FF763746B04643
:1010C000B1460425E443E6B2C4F30727C4F3074856
:1010D0004FEA1469E802FFF794FE0546042D49D152
:1010E00020481F498860204888600846006940F011
:1010F00010000861FF2E06D01C4808300680E80268
:10110000FFF77FFE0546042D08D1FF2F06D01748B4
:101110000A300780E802FFF774FE0546042D0AD165
:10112000B8F1FF0F07D011480C30A0F80080E8029A
:10113000FFF767FE0546042D0AD1B9F1FF0F07D06E
:101140000A480E30A0F80090E802FFF75AFE054664
:10115000052D0FD00248006941F6EF71084007E005
:101160000020024023016745AB89EFCD00F8FF1F47
:10117000664908612846BDE8F08330B50546042479
:101180004FF43020FFF73DFE0446042C41D1604867
:101190005E4988605F4888600846006940F020002A
:1011A00008610846006940F0400008614FF43020B3
:1011B000FFF727FE0446042C22D15448006941F66B
:1011C000DF710840514908610846006940F010008D
:1011D00008611DB100205049088002E0A5204E4959
:1011E00008804FF43020FFF70CFE0446052C10D089
:1011F0004648006941F6EF7108404449086108E03B
:10120000052C06D04148006941F6DF7108403F498E
:101210000861204630BDF0B505460E461746042449
:101220003B483A4988603B488860E002FFF7E9FDA7
:101230000446042C19D13548006940F010003349A8
:10124000086147F0F800304328433349891C08807F
:10125000E002FFF7D6FD0446052C06D02B480069B6
:1012600041F6EF710840294908612046F0BD274842
:10127000C069800870472548006A704700202349EC
:10128000096801F0200109B1012000E00020704749
:1012900029B11E4A126902431C4B1A6104E01B4A21
:1012A00012698243194B1A617047014600200129D7
:1012B00008D1164AD26902F001020AB1012008E001
:1012C000002006E0114AD2680A400AB1012000E07D
:1012D000002070470D49C860704704200B49C96859
:1012E00001F0010109B101200EE00849C96801F0CF
:1012F000040109B1022007E00449C96801F01001A6
:1013000009B1032000E004207047000000200240E3
:1013100023016745AB89EFCD00F8FF1F10B50446E8
:10132000CC48844208D10121042000F093FB002125
:10133000042000F08FFB46E0C748844208D1012119
:10134000082000F087FB0021082000F083FB3AE032
:10135000C248844208D10121102000F07BFB00210B
:10136000102000F077FB2EE0BD48844208D1012117
:10137000202000F06FFB0021202000F06BFB22E01A
:10138000B848844208D10121402000F063FB0021CD
:10139000402000F05FFB16E0B348844208D10121F1
:1013A000802000F057FB0021802000F053FB0AE072
:1013B000AE48844207D10121801500F04BFB00218B
:1013C000A01500F047FB10BD10B50121084600F044
:1013D00041FB0021012000F03DFB10BD2DE9F04153
:1013E000024600250026002000230024002791F853
:1013F00003C00CF00F0591F803C00CF0100CBCF109
:10140000000F03D091F802C04CEA050591F800C026
:10141000BCF1000F31D0146800202BE04FF0010C1C
:101420000CFA00F3B1F800C00CEA03069E4220D18A
:1014300083004FF00F0C0CFA03F7BC4305FA03FCD2
:101440004CEA040491F803C0BCF1280F06D14FF018
:10145000010C0CFA00FCC2F814C00AE091F803C0B9
:10146000BCF1480F05D14FF0010C0CFA00FCC2F89A
:1014700010C0401C0828D1D31460B1F800C0BCF1E2
:10148000FF0F34DD546800202EE000F1080C4FF00F
:10149000010808FA0CF3B1F800C00CEA03069E42FA
:1014A00021D183004FF00F0C0CFA03F7BC4305FA6F
:1014B00003FC4CEA040491F803C0BCF1280F05D1E9
:1014C00000F1080C08FA0CF8C2F8148091F803C077
:1014D000BCF1480F07D100F1080C4FF0010808FAE1
:1014E0000CF8C2F81080401C0828CED35460BDE828
:1014F000F0814FF6FF710180022181700421C170DB
:1015000070470246002093680B400BB1012000E0B9
:10151000002070470146886880B27047024600206C
:10152000D3680B400BB1012000E00020704701465A
:10153000C86880B2704701617047416170470AB165
:10154000016100E041617047C16070474FF4803233
:101550000A438261816182618269826970470246C1
:101560000020434B18684FF68073184040EA021081
:1015700008433F4B186070473E49C8617047F0B55B
:101580000A46002300240021002500F00046B6F1A1
:10159000004F02D1364EF16901E0354E7168C0F35B
:1015A000034583B200F44016B6F5401F08D121F080
:1015B00070612F4E766826F070662D4F7E6012E0C7
:1015C00000F48016B6F5801F06D1032606FA05F44E
:1015D000A14341F0706106E0460D360103FA06F6BC
:1015E000B14341F0706122B1460D360103FA06F6AF
:1015F000314300F00046B6F1004F02D11C4EF161BC
:1016000001E01B4E7160F0BD30B500228B071C0F4E
:101610000F2303FA04F2164B08338C1053F82430CE
:101620009343134C08348D1044F8253023468C1016
:1016300053F824308C07240F00FA04F423430C4C95
:1016400008348D1044F8253030BD0A49DC3108607B
:101650007047000000080140000C014000100140EC
:101660000014014000180140001C0140002001400E
:10167000000001400000204210B50121080700F0E1
:10168000F6F900214FF0805000F0F1F910BD2A4921
:101690000862704728490861704701460020274AC0
:1016A000106820F0E0000843106070472249A03124
:1016B0000860704710B502460020204B186820F0E3
:1016C0000300104318601E4B1B6843F004031C4CBE
:1016D0002360012901D130BF00E020BF184B1B68F7
:1016E00023F00403164C236010BD1448006840F03A
:1016F0000400124908600846006840F002000860D3
:101700000F48006840F004000D49086000BF00BFAA
:1017100030BF704701460020084A52680A400AB1AB
:10172000012000E0002070470449096841EA800177
:10173000024A11607047000000000E420070004035
:1017400010ED00E0DF48006840F00100DD4908606E
:1017500008464068DC490840DA49486008460068A5
:10176000DA490840D74908600846006820F480201C
:1017700008600846406820F4FE0048604FF41F00EF
:1017800088607047CF49096821F48031CD4A1160E3
:101790001146096821F480211160B0F5803F03D023
:1017A000B0F5802F0ED106E0C649096841F48031BA
:1017B000C44A116007E0C349096841F4A021C14A45
:1017C000116000E000BF00BF704710B50146002265
:1017D000002300204A11012A02D1BA4C236806E0F6
:1017E000022A02D1B74C236A01E0B64C636A01F0C9
:1017F0001F02012494401C400CB1012000E0002095
:1018000010BD38B5002000900024002500BF312015
:10181000FFF7DBFF05460098401C00900098B0F5EC
:10182000A06F01D0002DF2D03120FFF7CEFF08B11C
:10183000012400E00024204638BD01460020A14AD2
:10184000106820F0F80040EAC10010607047A0491D
:1018500008607047024600209A4B586820F47C10BC
:1018600042EA01031843974B58607047984908664D
:10187000704701460020934A506820F00300084357
:10188000506070478F48406800F00C007047014678
:1018900000208C4A506820F0F000084350607047E8
:1018A00001460020874A506820F4E06008435060F9
:1018B000704701460020834A506820F4605040EA97
:1018C000C1005060704729B17E4A527A02437D4B75
:1018D0005A7204E07B4A527A82437A4B5A727047BA
:1018E0007B49D8310860704701460020754A50682E
:1018F00020F440400843506070470021714A203274
:101900001170704A82F82010012802D004280AD1F0
:1019100004E001216B4A2032117005E00521694A7B
:101920002032117000E000BF00BF704769490860B5
:1019300070476449096A0143624A11627047654908
:1019400044390860704730B500210022002400238C
:101950005C4D6D6805F00C0121B1042905D0082902
:1019600023D105E05C4D056022E05B4D05601FE082
:10197000544D6D6805F47012524D6D6805F4803455
:10198000022505EB92421CB9544D554305600BE00E
:101990004C4D6D6805F400351DB1504D5543056043
:1019A00002E04D4D5543056002E04B4D056000BF20
:1019B00000BF444D6D6805F0F0010909484D6B5CAE
:1019C0000568DD4045603F4D6D6805F4E061090A3A
:1019D000434D6B5C4568DD4085603A4D6D6805F4AC
:1019E0006051C90A3E4D6B5C4568DD40C560354DB0
:1019F0006D6805F44041890B3A4D6B5CC568B5FBD9
:101A0000F3F5056130BD29B12E4A526902432D4BD1
:101A10005A6104E02B4A526982432A4B5A6170474B
:101A200029B1284A92690243264B9A6104E0254A6B
:101A300092698243234B9A61704729B1214AD26946
:101A40000243204BDA6104E01E4AD26982431D4BF7
:101A5000DA61704729B11B4AD2680243194BDA6038
:101A600004E0184AD2688243164BDA60704729B105
:101A7000144A12690243134B1A6104E0114A1269B5
:101A80008243104B1A617047124940390860704711
:101A90000F49C86470470B49C87170470948406ACC
:101AA00040F0807007494862704701460020054AAF
:101AB00092680A400AB1012000E000207047014905
:101AC00088727047001002400000FFF8FFFFF6FE2A
:101AD000000042428004424200127A0000093D00A8
:101AE000140000202400002029B1504A128802432B
:101AF0004E4B1A8004E04D4A128882434B4B1A80A9
:101B000070474A48001D008840F010004749091DF1
:101B1000088070474548001D00884FF6EF71084067
:101B20004249091D08807047002140481C30018847
:101B3000001F008841EA0040704700B50246FFF7E9
:101B4000E0FF100C394918310880091D0A80FFF7A1
:101B5000E1FF00BD00B50246FFF7D3FFC2F303402B
:101B6000324908310880091D0A80FFF7D3FF00BD04
:101B700000B50246FFF7C5FF100C2C492031088044
:101B8000091D0A80FFF7C6FF00BD0020274910315C
:101B900009880907080B254914310988084370474B
:101BA00000BF2248001D008800F020000028F8D067
:101BB00070471E48001D00884FF6F77108401B490A
:101BC000091D088000BF1948001D008800F00800AA
:101BD0000028F8D0704701460020144A121D1288D0
:101BE0000A400AB1012000E0002070470F49091D9A
:101BF000098881430D4A121D11807047014600205B
:101C00000A4A121D12880A40D0B2084A12880A40B5
:101C100012B108B1012000E0002070470349091DFE
:101C200009888143014A121D118070470028004035
:101C300010B50446FE48844208D10121C014FFF7C4
:101C400009FF0021E014FFF705FFC4E0B4F1804F65
:101C500008D101210846FFF70AFF00210120FFF704
:101C600006FFB8E0F348844208D101210220FFF7C3
:101C7000FEFE00210220FFF7FAFEACE0EE488442AF
:101C800008D101210420FFF7F2FE00210420FFF714
:101C9000EEFEA0E0E948844208D101210820FFF7C8
:101CA000E6FE00210820FFF7E2FE94E0E4488442CB
:101CB00008D101211020FFF7DAFE00211020FFF7E4
:101CC000D6FE88E0DF48844208D101212020FFF7BA
:101CD000CEFE00212020FFF7CAFE7CE0DA488442D5
:101CE00008D101214014FFF7B5FE00216014FFF771
:101CF000B1FE70E0D548844209D10121C804FFF744
:101D0000A9FE00214FF40020FFF7A4FE63E0D048B5
:101D1000844209D101210805FFF79CFE00214FF400
:101D20008010FFF797FE56E0CA48844209D101218E
:101D30004805FFF78FFE00214FF40010FFF78AFEE1
:101D400049E0C548844208D101214020FFF78FFEB9
:101D500000214020FFF78BFE3DE0C048844208D1BF
:101D600001218020FFF783FE00218020FFF77FFE06
:101D700031E0BB48844208D101218015FFF777FE8E
:101D80000021A015FFF773FE25E0B648844209D173
:101D900001210804FFF75EFE00214FF48030FFF7B9
:101DA00059FE18E0B048844209D101214804FFF7E8
:101DB00051FE00214FF40030FFF74CFE0BE0AB4822
:101DC000844208D101218804FFF744FE00214FF42A
:101DD0008020FFF73FFE10BD00220288944B9842FE
:101DE0000ED0994B98420BD0B0F1804F08D0914B58
:101DF000984205D0904B984202D0904B984204D123
:101E00004FF68F731A404B881A438D4B984207D078
:101E10008C4B984204D04FF6FF431A40CB881A43AC
:101E200002808B8883850B880385814B98420BD079
:101E3000854B984208D08B4B984205D08A4B9842EC
:101E400002D08A4B984201D10B7A03860123838208
:101E5000704770B5002400220023058C4FF6FE76F3
:101E600035400584028C8388048B4FF68F752C4097
:101E7000B51E2C400D882C43751E2A400D892A431F
:101E80004D882A436A4DA8420BD06F4DA84208D016
:101E9000744DA84205D0744DA84202D0734DA8429B
:101EA00013D14FF6F7752A404D892A434FF6FB753B
:101EB0002A408D882A434FF6FF652B404FF6FF5589
:101EC0002B408D892B43CD892B4383800483CD8880
:101ED0008586028470BD70B5002400220023058C25
:101EE0004FF6EF7635400584028C8388048B48F6E4
:101EF000FF752C404FF6FF452C400D884FF6FF76BE
:101F000006EA05252C434FF6DF752A400D8906EABF
:101F100005152A434D8806EA05152A43444DA84273
:101F200002D0494DA8421DD14FF67F752A404D89F8
:101F30004FF6FF7606EA05152A434FF6BF752A408D
:101F40008D8806EA05152A434FF6FF352B404FF2E0
:101F5000FF752B408D8906EA85052B43CD8906EA5E
:101F600085052B4383800483CD880587028470BD5B
:101F700070B5002400220023058C4FF6FF66354023
:101F80000584028C8388848B4FF68F752C404FF626
:101F9000FC752C400D882C434FF6FF552A400D89C7
:101FA0004FF6FF7606EA05252A434D8806EA052501
:101FB0002A431F4DA84202D0234DA8421DD14FF203
:101FC000FF752A404D894FF6FF7606EA05252A431C
:101FD0004FF6FF352A408D8806EA05252A434EF63E
:101FE000FF752B404DF6FF752B408D8906EA0515D0
:101FF0002B43CD8906EA05152B4383808483CD8846
:102000008587028470BD70B5002200230024058CF2
:102010004EF6FF7635400584038C8488828B48F623
:10202000FF752A404FF6FF452A400D8820E000004A
:10203000002C01400004004000080040000C00405B
:10204000001000400014004000340140004C0140EA
:10205000005001400054014000180040001C0040A6
:102060000020004000400140004401400048014081
:102070004FF6FF7606EA05252A434DF6FF752B40FD
:102080000D8906EA05352B434D8806EA05352B43B5
:10209000FA4DA84202D0FA4DA84208D14BF6FF757E
:1020A0002C408D894FF6FF7606EA85152C438480F7
:1020B0008283CD88A0F84050038470BD828B4FF29C
:1020C000FF331A408283828B4FF6FF7303EA0123AA
:1020D0001A4382837047F0B50C4615460022002152
:1020E0000026078C4EF6FF7C07EA0C070784828BDC
:1020F000018C4FF6FF7707EA043640F6FF473A4077
:102100004FF6FF7707EA05273A434FF6FF7707EACE
:1021100003373A43D94FB8420ED0D94FB8420BD00B
:10212000B0F1804F08D0D74FB84205D0D64FB84253
:1021300002D0D64FB84206D14DF6FF77394046F46B
:102140008057394305E047F6FF57394044F480573C
:10215000394382830184F0BD828B4FF6F3731A40BA
:102160008283828B0A4382837047F0B50C46154602
:10217000002200210026078C4FF6FF6C07EA0C07AF
:102180000784828B018C4FF6FF7707EA04264FF60F
:102190000C773A404FF6FF7707EA03172F433A438D
:1021A000B64FB8420ED0B64FB8420BD0B0F1804F08
:1021B00008D0B44FB84205D0B34FB84202D0B34FA5
:1021C000B84206D14FF6FF57394046F4807739437D
:1021D00005E04FF2FF57394044F48077394382835A
:1021E0000184F0BD028B4FF2FF331A400283028B51
:1021F0004FF6FF7303EA01231A4302837047F0B5D9
:102200000C461546002200210026078C4FF6EF7C75
:1022100007EA0C070784028B018C4FF6FF7707EA69
:10222000041640F6FF473A404FF6FF7707EA0337B8
:102230003A434FF6FF7707EA05273A438F4FB842F4
:102240000ED08F4FB8420BD0B0F1804F08D08D4FD9
:10225000B84205D08C4FB84202D08C4FB84206D15C
:102260004FF6DF77394046F01007394305E04FF667
:102270005F77394044F01007394302830184F0BD91
:10228000028B4FF6F3731A400283028B0A430283D8
:102290007047F0B50C46154600220021068C4FF61B
:1022A000FE773E400684028B018C4FF60C7632405E
:1022B0007E1C06EA03162E433243704EB0420ED007
:1022C0006F4EB0420BD0B0F1804F08D06D4EB0428F
:1022D00005D06D4EB04202D06C4EB04206D14FF6E2
:1022E000FD76314044F00106314305E04FF6F576C6
:1022F000314044F00106314302830184F0BD70B5E2
:1023000005460C465D4885420ED05D4885420BD09F
:10231000B5F1804F08D05B48854205D05A488542C8
:1023200002D05A48854200D100E000BF208850B951
:102330002389A28861882846FFF7ABFFE1882846F9
:10234000FFF79EFF25E0208804280AD12389A28870
:1023500061882846FFF753FFE1882846FFF742FFD0
:1023600017E0208808280AD12389A2886188284696
:10237000FFF7FBFEE1882846FFF7EEFE09E0238920
:10238000A28861882846FFF7A6FEE1882846FFF765
:1023900095FE70BD2DE9F04105460C46002601274B
:1023A000608808B9022600E00026A088012801D133
:1023B000022700E001272088A0B92389A28861882C
:1023C0002846FFF766FFE1882846FFF759FF238973
:1023D0003A4631462846FFF712FFE1882846FFF7C4
:1023E00001FF13E02389A28861882846FFF707FFD1
:1023F000E1882846FFF7F6FE23893A46314628460B
:10240000FFF747FFE1882846FFF73AFFBDE8F08174
:102410000A884B881A438B881A43CB881A430B8946
:102420001A434B891A438B891A43A0F844207047FA
:102430004FF6FF71818000210180C18041800172CF
:1024400070470021018041808180C18001814181EC
:102450008181C181704700210180418001218180FB
:102460000021C1800181704700210180418081806D
:10247000C18001814181818170470000002C0140B1
:10248000003401400004004000080040000C0040FF
:1024900021B1028842F00102028004E002884FF676
:1024A000FE731A400280704731B1B0F8442042F404
:1024B0000042A0F8442005E0B0F84420C2F30E0228
:1024C000A0F8442070471AB183890B43838102E04E
:1024D00083898B43838170478182704741EA02037D
:1024E000A0F8483070471AB183890B43838102E01A
:1024F00083898B438381704701894FF6F8721140BD
:10250000018170470A46002101894FF68F731940F7
:1025100011430181704730B504460D4629462046D7
:10252000FFF7F0FF208940F00700208130BD2DE942
:10253000F04104460D4616461F46602D06D13B4627
:10254000012231462046FFF75AFE05E03B460122B4
:1025500031462046FFF79DFE29462046FFF7D2FF71
:10256000208940F007002081BDE8F08130B50C469D
:1025700000210189C9B24FF6FF7505EA032515430D
:1025800025432943018130BD2DE9F04105460E4622
:1025900017469846002443463A4631462846FFF7F8
:1025A000E5FF2C894FF6F870044044F007044FF61D
:1025B0008F70044044F070042C81BDE8F081F0B5C8
:1025C00004460D4616461F463B46324629462046DF
:1025D000FFF7CCFF208940F480402081F0BD0185C9
:1025E000828270470A46002101884FF68F73194096
:1025F000114301807047F0B50C4615461E46002178
:10260000002200230189028B038C4FF6F8773940B2
:1026100021434FF6FC473A4040F201173A434FF648
:10262000DD773B404FF6FF7707EA06172F433B4322
:10263000018102830384F0BD0A460021018B4FF61D
:102640008F7319401143018370470A460021018BA3
:1026500048F6FF7319404FF6FF7303EA022319434C
:10266000018370470A460021818B4FF68F73194012
:102670001143818370470A460021818B48F6FF731E
:1026800019404FF6FF7303EA022319438183704711
:1026900021B1028842F08002028004E002884FF6F5
:1026A0007F731A400280704721B1828842F0040291
:1026B000828004E082884FF6FB731A408280704764
:1026C00021B1828842F00802828004E082884FF6BD
:1026D000F7731A408280704721B1828842F001026C
:1026E000828004E082884FF6FE731A408280704731
:1026F0000A460021018B4FF6F773194011430183FD
:1027000070470A460021018B4FF2FF7319404FF6C4
:10271000FF7303EA02231943018370470A4600212D
:10272000818B4FF6F77319401143818370470A4636
:102730000021818B4FF2FF7319404FF6FF7303EABC
:1027400002231943818370470A460021018B4FF60B
:10275000FB7319401143018370470A460021018B26
:102760004FF6FF3319404FF6FF7303EA0223194374
:10277000018370470A460021818B4FF6FB73194095
:102780001143818370470A460021818B4FF6FF3346
:1027900019404FF6FF7303EA022319438183704700
:1027A0000A460021018B4FF67F73194011430183C4
:1027B00070470A460021018BC1F30E014FF6FF73EB
:1027C00003EA02231943018370470A460021818BE3
:1027D0004FF67F7319401143818370470A460021E9
:1027E000818BC1F30E014FF6FF7303EA02231943F5
:1027F000818370470A460021018C4FF6FD73194012
:102800001143018470470A460021018C4FF6F7738B
:1028100019401143018470470A460021018C4FF68C
:10282000DF7319404FF6FF7303EA02131943018463
:1028300070470A460021018C4FF67F7319404FF60E
:10284000FF7303EA02131943018470470A4600210B
:10285000018C4FF6FF5319404FF6FF7303EA022332
:102860001943018470470A460021018C4FF2FF731F
:1028700019404FF6FF7303EA02231943018470479E
:102880000A460021018C4DF6FF7319404FF6FF7385
:1028900003EA023319430184704730B50023012451
:1028A0008C40A3B2048C9C430484048C02FA01F58E
:1028B000ADB22C43048430BD30B5002304248C40D9
:1028C000A3B2048C9C430484048C02FA01F5ADB2DB
:1028D0002C43048430BD70B5034600200024184604
:1028E000183001258D40ACB21D8CA5431D8409B163
:1028F000082909D100EB6100056825F07005056025
:102900000568154305600EE00D1FC5F34E0528440C
:10291000056825F4E045056005684FF6FF7606EA90
:1029200002263543056070BD21B1028842F00202E3
:10293000028004E002884FF6FD731A40028070475F
:1029400021B1028842F00402028004E002884FF6BE
:10295000FB731A400280704721B1828842F08002E6
:10296000828004E082884FF67F731A40828070472D
:1029700002884FF6F7731A40028002880A430280E9
:10298000704782884FF68F731A40828082880A438C
:102990008280704702894FF6F8731A4002810289DB
:1029A0000A430281704702894FF67F731A40028101
:1029B00002890A430281704781847047818570478C
:1029C000818670470187704781877047A0F8401063
:1029D000704702884FF6FF431A40028002880A437C
:1029E000028070470146888E70470146088F704705
:1029F0000146888F70470146B1F840007047014694
:102A0000888C70470146088D704702460020138A63
:102A10000B400BB1012000E000207047CA43028246
:102A2000704730B50246002000230024158A05EACD
:102A30000103958905EA010413B10CB1012000E0FE
:102A4000002030BDCA4302827047000010B5044622
:102A5000FB48844209D101218803FEF7FBFF0021D6
:102A60004FF48040FEF7F6FF32E0F648844209D189
:102A700001214804FEF7FBFF00214FF40030FEF770
:102A8000F6FF25E0F048844209D101218804FEF7D1
:102A9000EEFF00214FF48020FEF7E9FF18E0EB483D
:102AA000844209D10121C804FEF7E1FF00214FF45F
:102AB0000020FEF7DCFF0BE0E548844208D101214D
:102AC0000805FEF7D4FF00214FF48010FEF7CFFF7A
:102AD00010BD2DE9F04786B005460E460024A246FB
:102AE00000BFA1460027B08900B100BF2F462C8A45
:102AF0004CF6FF700440F08804432C82AC894EF6FB
:102B0000F3100440B08831890843718908430443B5
:102B1000AC81AC8A4FF6FF400440B0890443AC82DC
:102B200001A8FEF710FFC648874202D1DDF810A0C9
:102B300001E0DDF80CA0A88900F4004040B10AEBE8
:102B4000CA0000EB0A1031684900B0FBF1F807E059
:102B50000AEBCA0000EB0A1031688900B0FBF1F8FB
:102B60006420B8FBF0F004012009642101FB108906
:102B7000A88900F4004040B1322000EBC900B0FB4E
:102B8000F1F000F00700044308E0322000EB0910E8
:102B90006421B0FBF1F000F00F0004432C8106B07B
:102BA000BDE8F0874FF41651016000218180C1809B
:102BB00001810C21418100218181704710B50246BD
:102BC0000020108A4FF2FF0318400B884C882343E3
:102BD0008C882343CC8823431843108210BD0021E6
:102BE000018041808180C180704721B1828942F497
:102BF0000052828104E082894DF6FF731A4082817F
:102C00007047F0B50346002400260025002040F65A
:102C10006A17B94200D100BF1846C1F3421401F04F
:102C20001F06012707FA06F5012C01D10C3004E03C
:102C3000022C01D1103000E014301AB107682F4384
:102C4000076002E00768AF430760F0BD1AB1838AEE
:102C50000B43838202E0838A8B4383827047028A1C
:102C60004FF6F0731A400282028A0A4302827047CA
:102C700082894FF2FF731A40828182890A438281DE
:102C8000704721B1828942F00202828104E0828988
:102C90004FF6FD731A4082817047028A4FF6DF7348
:102CA0001A400282028A0A430282704721B1028AD4
:102CB00042F48042028204E0028A4BF6FF731A401B
:102CC00002827047C1F308028280704701468888FB
:102CD000C0F308007047818941F00101818170478C
:102CE000028BD2B20283028B42EA01220283704736
:102CF000028B02F47F420283028B0A4302837047F5
:102D000021B1828A42F02002828204E0828A4FF658
:102D1000DF731A408282704721B1828A42F010022A
:102D2000828204E0828A4FF6EF731A4082827047F3
:102D300021B1828A42F00802828204E0828A4FF640
:102D4000F7731A408282704721B1828942F40042AF
:102D5000828103E08289C2F30E028281704721B131
:102D6000828A42F40062828204E0828A4FF2FF7318
:102D70001A4082827047828A4FF6FB731A40828221
:102D8000828A0A438282704721B1828A42F002021B
:102D9000828204E0828A4FF6FD731A408282704775
:102DA00002460020B1F5007F00D100BF13880B4020
:102DB0000BB1012000E00020704701F40072B2F571
:102DC000007F00D100BFCA430280704770B5024641
:102DD000002400230025002040F66A16B14200D1ED
:102DE00000BFC1F3421501F01F03012606FA03F3E9
:102DF000012D02D19689334006E0022D02D1168AB8
:102E0000334001E0968A33400C12012606FA04F49E
:102E10001688344013B10CB1012000E0002070BDD1
:102E200010B50022002340F66A14A14200D100BF71
:102E30000A1201249440A3B2DC43048010BD0000B8
:102E4000003801400044004000480040004C004071
:102E50000050004008B500F075FC684601F0E8FD40
:102E600005A004F017F900F051FB00F079FB68466B
:102E700001F030FF002008BD4F532053746172747D
:102E800021210D0A00000000704700BFFEE700BFCF
:102E9000FEE700BFFEE700BFFEE77047704710B5D2
:102EA00001F012FE03F0B5FC01F01FFE10BD10B5DD
:102EB0004FF40871FC48FDF75BFC012804D14FF486
:102EC0000871F948FDF766FC10BD10B50220FDF74A
:102ED00096FE01280DD10021F348FDF78CFA02205F
:102EE000FDF7A1FE00F071FF04462146EFA004F0BB
:102EF000D1F810BD2DE9FC4140F22551F048FFF713
:102F000065FF012879D140F22551ED48FFF788FF90
:102F1000EB48FFF7DBFEC4B2EA48007810B10128A5
:102F20006CD147E0E848007830B1012810D0022881
:102F30001AD0032832D11FE05F2C05D1E248007877
:102F4000401CE149087002E00020DF4908702FE0D2
:102F50005F2C05D1DC480078401CDB49087002E09A
:102F60000020D949087023E0D7480078401CD64992
:102F70000870D64804801BE0D3480078401CD24932
:102F800008700120CF490870D148D2490860CF4865
:102F9000008840EA0420CD49088009E00020CE499D
:102FA0000870C9490870CB490860C649087000BF5D
:102FB00000BF65E0C4480078071FAA2C0AD1C248A8
:102FC0000078001FC1490988884203D10120C24905
:102FD000087048E0552C2CD1BF480078012828D132
:102FE000BA48008800F0EFF906460EB3B7480188EA
:102FF000304603F0E1FF002505E042E034E0B4484C
:10300000405D70556D1CB14800888542F7D30020A3
:10301000B1490870AC490870AE490860A949087008
:1030200001A800231A4619460090AC4802F0C8FED9
:1030300019E0A5480078001FA449098888420ADDE4
:103040000020A5490870A0490870A0490880A1493E
:1030500008609C4908709C480078401C9A49087098
:103060009C480068C4550BE000209B4908709649B5
:10307000087096490880974908609249087000BF17
:1030800000BFBDE8FC8110B501F01EFD0120FDF779
:103090004DFE012836D1002000F0C0FF142001F0C1
:1030A000E0F88F480068012813D100208C4908609F
:1030B0008C48006820F001008A490860081D0068FB
:1030C00040F00100091D08600121002000F0B6FF5A
:1030D00012E00120824908608248006840F0010047
:1030E00080490860081D006820F00100091D086083
:1030F0000021084600F0A2FF0120FDF728FE002075
:1031000000F094FF01F0F1FC10BD10B501F0DCFC03
:103110004FF48060FDF70AFE01282ED17048806AC6
:10312000012813D100206E4988626E48006820F49F
:1031300080606C490860081D006840F48060091DCB
:10314000086001210A2000F079FF12E001206449A3
:1031500088626448006840F4806062490860081D25
:10316000006820F48060091D086000210A2000F03A
:1031700065FF4FF48060FDF7EAFD4FF40060FDF756
:10318000D5FD012802D1C002FDF7E1FD4FF48050CA
:10319000FDF7CCFD012802D10003FDF7D8FD4FF467
:1031A0000050FDF7C3FD012837D10D2000F036FF98
:1031B000142001F056F84A48406B012813D1002032
:1031C000474948634748006820F400504549086073
:1031D000081D006840F40050091D086001210D2001
:1031E00000F02CFF12E001203D4948633D48006893
:1031F00040F400503B490860081D006820F400506E
:10320000091D086000210D2000F018FF4FF4005048
:10321000FDF79DFD0D2000F009FF4FF48040FDF704
:1032200085FD012802D18003FDF791FD4FF4004098
:10323000FDF77CFD012802D1C003FDF788FD01F0F8
:1032400054FC10BD1CB501218807FFF7EAFB0128DB
:103250000FD101F039FC01A800231A46194600904D
:10326000214802F0ADFD01218807FFF7EBFB01F0DB
:103270003CFC1CBD10B50120FEF7C0FC30B10120A4
:10328000FEF7CCFCFEF78CFC01F0F4FA0220FEF70E
:10329000B5FC38B10220FEF7C1FCFEF781FC13A09B
:1032A00003F0F8FE10BD0000002401406164635F7C
:1032B00076616C75652069732025640D0A00000035
:1032C0000038014028000020290000202C000020A8
:1032D000D8160020300000202A00002060040020C2
:1032E000B81B002008040140E8000020205254438D
:1032F0002057414B4555500D0A0000007047000013
:103300001CB509E001A800231A461946009018468A
:1033100002F04CFC00F0B0FEF4E71CB509E001A897
:1033200000231A4619460090184602F03FFC00F0B0
:10333000C3FDF4E71FB52BE002A8002303AA19463A
:103340000090184602F032FC0446257825B1012D84
:1033500008D0022D0ED109E000F0CBFB0FA003F046
:1033600099FE08E0204600F007FC04E0204600F04B
:10337000F6FC00E000BF00BF204600F071F802A894
:103380000021C8230A46CDE90010084603F091F950
:10339000D2E710B503A003F07DFE10BD6F6B0D0AE0
:1033A000000000002043616C6C4261636B0D0A00F9
:1033B00070B504460D4616462B46224631468DA072
:1033C00003F068FE70BD38B50446142C0FD2694670
:1033D000904801F0FFFF0546BDF8000028B1BDF898
:1033E000002029218CA0FFF7E3FF284638BD142CCC
:1033F00011D3642C0FD269468C4801F0EBFF0546CF
:10340000BDF8000028B1BDF80020322182A0FFF7EE
:10341000CFFF2846EAE7642C12D3B4F5FA7F0FD227
:103420006946834801F0D6FF0546BDF8000028B183
:10343000BDF800203B2178A0FFF7BAFF2846D5E76A
:10344000B4F5FA7F0AD945F2C1600090BDF80020BA
:10345000422171A0FFF7ACFF0020C7E700BFC5E71E
:103460002DE9F84F05462C46724E06F1C809724FF9
:1034700007F57A7ADFF8C48108F6B83B4C4511D2DB
:10348000B4420FD36A462146624801F0CFFFBDF82F
:103490000000002838D0BDF800205F215EA0FFF7B3
:1034A00087FF31E0544510D2BC420ED36A46214614
:1034B0005E4801F0BBFFBDF8000028B3BDF8002056
:1034C000672155A0FFF774FF1EE05C4510D244450C
:1034D0000ED36A462146564801F0A8FFBDF8000009
:1034E00090B1BDF800206F214BA0FFF761FF0BE00A
:1034F00045F2BF600090BDF8000028B1BDF8002083
:10350000772145A0FFF754FFBDE8F88F0EB502A85C
:1035100014210A23474ACDE9001049A13D4801F092
:1035200017FFBDF8080028B1BDF8082086213AA091
:10353000FFF73EFF02A864210A233F4ACDE90010AD
:1035400042A13A4801F004FF02A84FF4FA710623A1
:103550003A4ACDE9001040A1354801F0F9FE0EBD10
:1035600000B58BB00AA8032100220592CDE90621FF
:1035700008900A20502108223A4BCDE90132CDE9CA
:10358000031004200023384A38A100903A4802F082
:103590005DFA0AA8032100220592CDE906210890D0
:1035A0000A2050210822354BCDE90132CDE9031024
:1035B00005200023324A33A10090354802F046FA34
:1035C0000AA8032100220592CDE9062108900A20CD
:1035D000502108222F4BCDE90132CDE903100720FD
:1035E00000232D4A2DA10090304802F02FFA0BB095
:1035F00000BD00006572726F725B25645D3A2066E3
:10360000696C655B25735D2C6C696E655B25645D1B
:103610000D0A0000841600202E2E5C2E2E5C4170B8
:10362000705C72746F732E63000000009C160020A3
:10363000B41600201C060020E4060020CC0A00205E
:103640006D656D5F70617274310000006D656D5F56
:1036500070617274320000006D656D5F706172742C
:10366000330000002003002001330008455854496E
:1036700048616E646C657200A4020020DC040020C6
:10368000353300084D736748616E646C65720000E5
:1036900060040020640100201B33000854494D32AF
:1036A000486973725F54434200000000E800002044
:1036B00030B50146B1F1807F01D3012030BD21F04A
:1036C0007F40401E4FF0E022506150170F2200282B
:1036D00007DA13071D0E2D4B00F00F04241F1D5594
:1036E00003E013071C0E2A4B1C5400BF00204FF0B0
:1036F000E0229061072010610020DFE72548006884
:10370000254908602348001F0068486021480838A0
:1037100000688860704710B5204800684FF47A71DF
:10372000B0FBF1F42046FFF7C3FF1C4800684FF4DC
:103730007A71B0FBF1F42046FFF7BAFF08B100BF81
:10374000FEE710BD10B5FFF7E6FFFEF79BF820B1CE
:10375000042806D008280CD107E011A003F09AFC39
:103760000BE017A003F096FC07E01DA003F092FC0D
:1037700003E023A003F08EFC00BF00BF00F04EF872
:1037800000F07CF800F0D9FA10BD000018ED00E060
:1037900000E400E0F0F7FF1FCC160020000000203E
:1037A0000D0A2048534920757365642061732073A6
:1037B000797374656D20636C6F636B2E0D0A000066
:1037C0000D0A20485345207573656420617320738A
:1037D000797374656D20636C6F636B2E0D0A000046
:1037E0000D0A20504C4C2075736564206173207362
:1037F000797374656D20636C6F636B2E0D0A000026
:103800000D0A202A20756E6B6F6E776E20636C6FC9
:10381000636B20736F7572652E202A0008B5012135
:103820008820FEF7FDF80120ADF8000010208DF88B
:10383000030003208DF8020069460E48FDF7CEFD17
:103840008020ADF8000069460B48FDF7C7FD4FF436
:103850008070ADF8000069460748FDF7BFFD012103
:103860000448FDF768FE4FF4C0710348FDF763FE9E
:1038700008BD0000000C0140001C014000B585B0EF
:10388000012144F20400FEF7CBF84FF40070ADF8CC
:10389000100018208DF8130003208DF8120004A9E1
:1038A0002448FDF79BFD4FF48060ADF81000042024
:1038B0008DF8130004A91F48FDF790FD4FF4E13087
:1038C00000900020ADF80400ADF80600ADF8080047
:1038D000ADF80C000C20ADF80A0069461648FFF759
:1038E000F8F8012240F225511348FFF78AF9012127
:1038F0001148FFF77AF905B000BD70B504460D46D2
:10390000E1B20D48FFF7DEF900BF80210A48FFF75A
:1039100047FA0028F9D0204670BD10B5044600BF14
:1039200020210548FFF73CFA0028F9D00248FFF7AC
:10393000CDF910BD0008014000380140F8B505463A
:103940000C4616460420009000270FE021882846E8
:10395000FDF76DFB00909DF80000042802D09DF853
:103960000000F8BDB81C87B2AD1CA41CB742EDDB4B
:103970000420F6E72DE9FC5F05460F4614460020BB
:103980000190FDF712FAC5F30A0AC4F3CF28C4F375
:103990000A09CAF50066BAF1000F2FD1B8F1000F7D
:1039A0000AD12846FDF740FA0090A2B239462846CF
:1039B000FFF7C4FF009083E00EE02846FDF734FADD
:1039C00000904FF4006239462846FFF7B7FF009099
:1039D00005F5006507F50067B8F10000A8F10101E1
:1039E0001FFA81F8E9D12846FDF71EFA00904A46F1
:1039F00039462846FFF7A2FF009061E0B8F1000FBA
:103A000027D1B1451ADD2846FDF70EFA009032465F
:103A100039462846FFF792FF009035443744A9EB1A
:103A200006001FFA80FB2846FDF7FEF900905A4673
:103A300039462846FFF782FF009041E02846FDF70F
:103A4000F3F90090A2B239462846FFF777FF0090BD
:103A500036E0A41BC4F3CF28C4F30A092846FDF7B7
:103A6000E3F90090324639462846FFF767FF009099
:103A700005F5006507F500670EE02846FDF7D4F967
:103A800000904FF4006239462846FFF757FF009038
:103A900005F5006507F50067B8F10000A8F1010120
:103AA0001FFA81F8E9D1B9F1000F09D02846FDF7D6
:103AB000BBF900904A4639462846FFF73FFF009081
:103AC000FDF780F90420BDE8FC9F10B503460C46C5
:103AD000002103E013F8010B6054491C9142F9D313
:103AE00088B210BD0EB50A2269460948FFF7EDFFFE
:103AF0000EBDFEB506460F4606A207CA8DE80700B2
:103B00000A25034C2A4669462046FFF733FFFEBDCF
:103B1000000002080203040506070809010100006D
:103B200000B585B001210420FDF77AFF0121480787
:103B3000FDF783FF3020ADF8100000208DF8130052
:103B400004A91C48FDF74AFC3C200090002001908D
:103B50000220039069460020FCF78FFE6946102082
:103B6000FCF78BFE01210020FCF7A4FE01211020B0
:103B7000FCF7A0FE05B000BD2DE9F0410446254646
:103B80006E88AF88012E08D139460020FCF700FF6F
:103B900001211020FCF7B2FE09E0022E07D13946C0
:103BA0000020FCF7E8FE01210020FCF7A7FEBDE89D
:103BB000F08100000008014008B501210846FDF72A
:103BC00022FF01214FF40470FDF72AFF0220ADF817
:103BD000000000208DF8030069468248FDF7FEFBD7
:103BE00008BD00B591B08048FCF702FF7F48069001
:103BF0007F480790002008901020099000200A902C
:103C000080200B9040000C9080000D9020200E90A2
:103C100000020F900020109006A97348FCF78AFF5D
:103C2000012202217048FCF7BCFF01216E48FCF71D
:103C3000ACFF002001908DF8080001208DF80900EC
:103C40004FF4602003900020049001208DF81400B0
:103C500001A966484C38FCF7A2FB4FF44040FDF741
:103C600043FE052301220B2160484C38FCF72FFC52
:103C700001215E484C38FCF7BEFB01215B484C3803
:103C8000FCF7C4FB59484C38FCF7D7FB00BF57483A
:103C90004C38FCF7D7FB0028F9D154484C38FCF7D6
:103CA000DBFB00BF51484C38FCF7DBFB0028F9D1A7
:103CB0000120FCF731FD01214C484C38FCF7DBFBBF
:103CC00011B000BD00B585B0002000908DF8040053
:103CD0008DF805004FF46020029000200390012031
:103CE0008DF81000694641484C38FCF758FB4FF4FA
:103CF0004040FDF7F9FD01213C484C38FCF77BFBC7
:103D00003A484C38FCF799FB00BF38484C38FCF770
:103D100099FB0028F9D135484C38FCF79DFB00BFD2
:103D200032484C38FCF79DFB0028F9D100212F4880
:103D30004C38FCF760FB05B000BD10B5FFF73CFF49
:103D4000FFF74FFF10BD10B5012128484C38FCF794
:103D500052FB012125484C38FCF78DFB10BD70B596
:103D6000044614B1012C13D107E0052301220B21D5
:103D70001E484C38FCF7ABFB0BE00120FCF7CCFCF9
:103D800007230122102119484C38FCF7A0FB00E062
:103D900000BF00BF012115484C38FCF72CFB012166
:103DA00012484C38FCF767FB00BF02210F484C3823
:103DB000FCF7D2FC0028F8D00C484C38FCF7EEFB9E
:103DC000054604B100BF284670BD0022002104E072
:103DD000074830F811000244491C1029F8D3100993
:103DE0007047000000100140080002404C240140D0
:103DF000D81A00200EB501210846FDF71EFE42F23A
:103E00001070ADF804004720ADF800000020ADF8B8
:103E10000600ADF8020069464FF08040FDF7DCFF78
:103E200001218807FEF7FAFD012211469007FEF7EF
:103E30004AFB01218807FEF72BFB0EBD10B50024BD
:103E400010E0002004EB4401384A42F8210004EB62
:103E5000440102EB8101486004EB440102EB810163
:103E60008860641C102CECD3FFF7C4FF10BD30B584
:103E700002460B4600211AE001EB41002B4C04EBFB
:103E80008000806890B9012001EB4104274D05EBCB
:103E90008404A06001EB41002C4644F8202001EB93
:103EA000410004EB80004360084630BD491C1029E6
:103EB000E2DB4FF0FF30F8E710B5002433E004EB0D
:103EC00044001A4901EB8000806801282AD104EBE4
:103ED000440001EB800040680A280CD304EB440046
:103EE00001EB800040680A3804EB44010F4A02EB02
:103EF0008101486016E0002004EB44010B4A02EB0C
:103F00008101486004EB440152F821008047002001
:103F100004EB4401054A42F8210004EB440102EBA2
:103F200081018860641C102CC9D310BDF81A0020D0
:103F30000EB501210520FDF773FD0120ADF8080045
:103F400048208DF80B0002A96848FDF747FA0021C8
:103F50000846FDF759FB01216448FDF7D2FA012814
:103F60000DD1009000208DF804000C208DF8050084
:103F700001208DF806006846FCF772FE0DE0012076
:103F8000009000208DF8040008208DF80500012025
:103F90008DF806006846FCF763FE0EBD0EB50121E4
:103FA0001120FDF73DFD4FF40050ADF8080048200A
:103FB0008DF80B0002A94E48FDF710FA0D210220E2
:103FC000FDF722FB4FF400514948FDF79AFA01280A
:103FD0000ED14003009000208DF804000C208DF8D5
:103FE000050001208DF806006846FCF739FE0EE05A
:103FF0004FF40050009000208DF8040008208DF848
:10400000050001208DF806006846FCF729FE0EBD6C
:1040100010B5FFF78DFFFFF7C1FF10BD35490968E7
:10402000012282409143334A116070473149096847
:104030000122824011432F4A116070477CB504462B
:104040000D462D482D49096840F831402B49096833
:1040500000EBC100456029480068401C2749086002
:1040600000F01F00086001A800231A4619460090BE
:10407000234801F0A5FE7CBD10B52FE01E48214964
:10408000096850F8310010B10D281DD10AE01A4816
:104090001C49096800EBC1004068012801D100F00B
:1040A000E3F912E014481749096800EBC1004068C1
:1040B000012805D114A002F0EDFF00F03EF902E066
:1040C00016A002F0E7FF00E000BF00BF0D48006847
:1040D000401C0C49086000F01F0008600748006899
:1040E000084909688842C9D110BD00000008014094
:1040F0000010014000040140F81B002034000020A3
:10410000A402002038000020206B65795F31332045
:1041100072656C656173650D0A000000206B65793E
:104120005F31332070726573730D0A0010B54FF064
:10413000E022126922F004024FF0E0231A61C31753
:1041400000EB5373C3F3C7034B4C2370C31700EB4F
:104150005373D91044F6206251431422474B1A80FE
:104160004FF0E022126942F002024FF0E0231A61A0
:104170001A465161126942F001021A6110BD2DE91F
:10418000F843074600264FF0E020D0F814903A4854
:10419000007807FB00F800BF684600F037FD4FF0DD
:1041A000E020856911E04FF0E0208469AC420CD03A
:1041B000AC4202D2281B064403E0A9EB04002844C9
:1041C00006442546464500D300E0ECE700BF6846BC
:1041D00000F046FDBDE8F88338B50446284800786D
:1041E000012813D125480088844208DB2348008831
:1041F000B4FBF0F56A460021284602F007FA1F4892
:10420000008894FBF0F100FB114084B24FF47A7106
:1042100004FB01F0FFF7B3FF38BD70B50446194841
:1042200000681949B0FBF1F000FB04F52846FBF7E4
:1042300089FF70BD70B504461248006841F2707184
:10424000B0FBF1F000FB04F52846FBF77BFF70BDE7
:1042500000EB8002510000BF0A1EA1F10101FBD159
:10426000704742F2107200FB02F100BF021EA0F183
:104270000100FBD1704700003C0000203E00002000
:104280008900002000000020808D5B0070B500F0E8
:1042900090F9202000F0B0F900F0F5F90546012D65
:1042A00000D110E000240BE08049085D00F0A4F983
:1042B00000F0E9F90546012D00D104E0601CC4B20C
:1042C000082CF1DB00BF00F089F970BD70B5054620
:1042D00000F06FF9212000F08FF900F0D4F90646C4
:1042E000012E00D110E000240BE000F0ADF92855BC
:1042F000032C02D100F0F9F901E000F0E0F9601CB4
:10430000C4B2042CF1DB00BF00F068F970BD10B539
:104310003220FFF7A6FF0020644908700220487091
:10432000FFF7B4FF0A20FFF79CFFD0205F49087019
:1043300001204870FFF7AAFF10BD38B5002000909B
:104340005A48C07820F010005849C87008460078D4
:1043500040F001000870FFF799FF05E02820FFF703
:1043600080FF6846FFF7B2FF9DF8000000F04000B4
:104370000028F3D09DF8000000F003049DF8010030
:1043800040EA04244AA002F085FE21464CA002F037
:1043900081FE200A45498870CC7038BD38B5054685
:1043A00000200090A5F2663084B2C4F387003F4934
:1043B00088700846C07820F0C000C8700846C078F1
:1043C00004F0030140EA81103849C8700846C078FB
:1043D00040F01000C870FFF759FF05E02820FFF7F4
:1043E00040FF6846FFF772FF9DF8000000F04000B4
:1043F0000028F3D09DF8000000F003049DF80100B0
:1044000040EA0424214633A002F044FE38BD10B532
:1044100035A002F03FFE202000F08FF918B938A037
:1044200002F038FE02E03CA002F034FEFFF76FFF1E
:1044300040A002F02FFE83201C49C871FFF726FF21
:104440001A48C0793F490870084601783EA002F03A
:1044500021FE1648007840F00200144908704FF41D
:104460005B70FFF79BFF10BD08B500200090684609
:10447000FFF72CFF9DF80200411037A002F00AFE62
:104480009DF8001037A002F005FE9DF8011039A03C
:1044900002F000FE9DF802103AA002F0FBFD9DF82C
:1044A00003103CA002F0F6FD08BD00004100002012
:1044B0000D0A20D1B0CCA8B3C9B9A6200D0A0000BE
:1044C000B5B1C7B0B9A4D7F7C6B5B5E3CEAAA3BAFC
:1044D00025640000B5B1C7B0C6B5B5E3CEAA203A91
:1044E0002025640D0A0000000D0A20726461353831
:1044F00030376D20B2E2CAD4CAB5D1E9200D0A0026
:104500000D0A20726461353830376D20BCECB2E2A0
:10451000B3C9B9A6200D0A000D0A207264613538AE
:1045200030376D20BCECB2E2B2BBB3C9B9A6200DE6
:104530000A0000000D0A20C9CFB5E7B3C9B9A6200B
:104540000D0A000040000020B5B1C7B0D2F4C1BFD1
:10455000CEAA25640000000052535349203D202577
:10456000640D0A007265675B305D203D2030782560
:10457000780D0A007265675B315D203D203078253B
:10458000780D0A007265675B325D203D203078252A
:10459000780D0A007265675B335D203D2030782519
:1045A000780D0A00002001E0411CC8B21428FBDB92
:1045B000704710B580206949086040200860FFF707
:1045C000F1FF80206549091D0860FFF7EBFF4020DF
:1045D0006249091D0860FFF7E5FF10BD10B5802096
:1045E0005E49091D08604020091F0860FFF7DAFFD7
:1045F00080205A49086010BD70B50446002520E0AF
:1046000004F0800018B180205449086003E0802045
:104610005249091D0860FFF7C5FF40204F49086057
:10462000FFF7C0FF40204D49091D0860072D02D14A
:104630008020091F08606006040EFFF7B3FF681CA6
:10464000C5B2082DDCDB70BD70B50024002516E076
:104650006006040E402041490860FFF7A3FF3F4871
:104660000838006800F0800008B1601CC4B2402027
:104670003A49091D0860FFF795FF681CC5B2082D6F
:10468000E6DB204670BD10B5802034490860FFF796
:1046900089FF402031490860FFF784FF2F48083820
:1046A000006800F0800008B1012400E000244020F0
:1046B0002A49091D0860FFF775FF204610BD10B597
:1046C00080202649091D0860FFF76CFF4020234920
:1046D0000860FFF767FF40202049091D0860FFF7C9
:1046E00061FF80201D49086010BD10B580201B4966
:1046F0000860FFF757FF402018490860FFF752FF96
:1047000040201649091D0860FFF74CFF10BD08B591
:1047100001210820FDF784F9C020ADF80000032036
:104720008DF8020014208DF8030069460B481038FC
:10473000FCF754FEFFF752FF08BD70B50446FFF7C3
:10474000E6FFFFF736FF2046FFF756FFFFF79BFF18
:104750000546FFF743FF284670BD0000100C0140DE
:1047600010B501214FF0C050FDF767F90120FCF7AB
:104770008EFFFCF715F80120FDF7BFF800BF4120C0
:10478000FDF723F80028FAD04FF48070FDF7D1F838
:104790000120FDF7D4F8FDF70CFAFDF701FA01212D
:1047A0000846FDF7A1F9FDF7FBF947F6FF70FDF7A5
:1047B000D1F9FDF7F5F93C20FDF7BFF910BDF0B5D3
:1047C0000346344DB3FBF5F2B3FBF5F605FB1634A7
:1047D0004FF4616594FBF5F58D604FF4616594FBD2
:1047E000F5F605FB16453C2695FBF6F54D604FF4B6
:1047F000616594FBF5F605FB16453C2695FBF6F73F
:1048000006FB17550D6040F2B27009E000F0030599
:1048100015B94FF4B77501E040F26D15521B401CFD
:1048200000F0030515B94FF4B77501E040F26D15BE
:104830009542EBDD48614D69EE1705EB9676B610B3
:10484000A5EB860616B91D25134E7560012005E0FF
:10485000451E114E56F82550521B401C451E0E4E4B
:1048600056F825509542F3DD1C2575600861551CEE
:10487000CD60F0BD10B5FDF757F904460749FFF7C5
:104880009EFF064803684268816805A002F002FCAA
:1048900010BD0000805101004C000020F81C0020D9
:1048A00020BFAABBFACAB1BCE43A202025302E3280
:1048B000643A25302E32643A25302E32640D0A00D7
:1048C0001148124812481348134814481448154810
:1048D00015481648164817481748184818481948E0
:1048E00019481A481A481B481B481C481C481D48B0
:1048F0001D481E481E481F481F4820482048214880
:104900002148224800BF704734740008947300089F
:10491000987300089C730008A0730008C073000817
:10492000C4730008C8730008CC730008D073000873
:10493000D4730008D8730008DC730008E073000823
:10494000E4730008E8730008EC730008F0730008D3
:10495000F4730008F8730008FC7300080074000882
:1049600004740008087400080C740008107400082F
:1049700014740008187400081C74000820740008DF
:1049800024740008287400082C740008307400088F
:10499000002400BF19E000BF00BF02F0F5FA044692
:1049A00000BF00BFF8480068401CF7490860F7489E
:1049B0000068401CF549086000BF00BF204602F0B7
:1049C000E7FA00BF00BF02F063FAE4E710B58AB06F
:1049D00004460020EC490860032000210591CDE940
:1049E000070406910846EA490968EA4A1268EA4B50
:1049F0001B68CDE90132CDE903103F200023AFF25F
:104A00006F02E6A10090EA4801F020F80AB010BD5C
:104A100000210AE001EB4102E64B03EB8200002299
:104A20000281026042604A1CD1B24029F2D3704731
:104A300070B5044602F02DFA0020DF490870DF4906
:104A40000870DF490870DF48006858B1DE48056823
:104A500045B1DC48066803E0761E002028602D1D65
:104A6000002EF9D100F03CFEFFF7D2FF204601F006
:104A700089FB208800B170BD2046FFF7A7FF208882
:104A800000B1F8E7204601F08FFC208800B1F2E782
:104A9000204600F039FF208800B1ECE7204600F006
:104AA000F3FC208800B1E6E7204600F029FD2088CD
:104AB00000B1E0E7204602F00EF9208800B1DAE705
:104AC000FFF7FEFE00BFD6E7BC480078012800D003
:104AD0007047B9480078FA2800DBF9E7B648007853
:104AE000401CB549087000BFF2E710B50024B34878
:104AF0000078012800D010BD00BF02F045FA04463E
:104B000000BFAD48007828B900BF204602F040FA47
:104B100000BFF0E7A8480078401EA7490870084683
:104B20000078002805DD00BF204602F031FA00BF02
:104B3000E1E7A3480078002805DD00BF204602F029
:104B400027FA00BFD7E700F0D5FDA0490870084656
:104B5000007800EB4000974951F820009C4908601C
:104B6000084600689B490968884205D100BF204675
:104B700002F00EFA00BFBEE797480068401C964955
:104B800008604FF080509549086000BF204602F051
:104B9000FFF900BF00BFAEE710B5002486480078DB
:104BA000002800DD10BD86480078002800DDF9E708
:104BB00000BF02F0E9F9044600BF00F09BFD834905
:104BC00008700846007800EB40007A4951F8200050
:104BD0007F490860084600687E490968884205D117
:104BE00000BF204602F0D4F900BFDBE77A48006836
:104BF000401C794908604FF080507849086000BF38
:104C0000204602F0C5F900BF00BFCBE770B50446EF
:104C100000256A480078012803D045F68960208085
:104C200070BD67480078FA2803DB45F20920208030
:104C3000F6E700BF00BF02F0A7F9054600BF00BFBE
:104C40005F480078401C5E49087000BF00BF2846DE
:104C500002F09EF900BF00BF0020208000BFDFE708
:104C600070B50446002555480078012803D045F664
:104C70008960208070BD5248007818B946F66450AB
:104C80002080F7E700BF00BF02F07EF9054600BFB5
:104C900000BF4B480078401E49490870084600781C
:104CA00000280ADD00BF00BF284602F071F900BFEE
:104CB00000BF46F663502080DCE700BF00BF2846F7
:104CC00002F066F900BF00BFFFF766FF00202080FA
:104CD00000BFCFE710B5044638480078E8B900F0C7
:104CE00009FD3A490870084600783D490870374880
:104CF000007800EB40002F4951F82000344908604B
:104D0000084600683349086001202C49087002F009
:104D10007DF843F69920208002E045F68A602080E5
:104D200010BD01460020088047F2F8507047F0B5EA
:104D30008E6896F8375007893FB901270781002709
:104D40004F600F600160416052E007897F1C07815E
:104D5000026806E0946894F83770AF4200DD02E024
:104D60005268002AF6D100BF32B900274F6043686D
:104D70000B60596041603BE017689FBB11600027E2
:104D80000F604A60016033E0840000209C00002036
:104D90009C730008987300089473000875432F4FA4
:104DA000532D4949492049646C65205461736B0057
:104DB000642D0020E02D00208800002089000020C4
:104DC00097000020C4730008C073000895000020FD
:104DD000DC000020D8000020B400002004ED00E03A
:104DE00094000020FFE713680B604A60596011606F
:104DF000F0BD10B5C287016300230AE000244C60B7
:104E00000C600C614C610C83CC61886020315C1CAF
:104E1000A3B29342F2DB10BD2DE9F041054695F8AF
:104E2000370000EB4000FE4901EB80042F69EE687B
:104E300087B946B9002020812060606095F837006E
:104E400000F07AFC0EE02089401E208100203061B5
:104E5000266007E02089401E2081FE600EB9676051
:104E600000E0376100202861E860BDE8F08138B5D6
:104E700004460D4685B16B4602222946204601F0C4
:104E8000C2FABDF8000018B9032084F8360006E025
:104E9000022084F8360002E0022084F83600204622
:104EA000FFF7BAFF38BD2DE9F04105460C4616461E
:104EB0001F46DC48006880F834600020D949096842
:104EC00081F835003946D7480068FFF7D0FF6CB14C
:104ED00004F10808EC6001222946D2480068FFF777
:104EE00088FF29464046FFF722FF06E00020CD4913
:104EF0000968C887CB4909680863BDE8F08110B527
:104F00000489012C03D100240460446011E00C6882
:104F100024B94A680024146002600AE04C6824B98D
:104F20000B6800245C60436003E00B684A685A60C9
:104F300013600489641E048100244C600C6010BD61
:104F40002DE9F0410446256BE68F0AE0D5F80C8088
:104F500008F1080729463846FFF7D1FF2035701EB3
:104F600086B2002EF2DC0020E0872063BDE8F081ED
:104F700030B50346086BCC8F08E0C5689D4202D16E
:104F80000361C26104E02030651EACB2002CF4DC89
:104F900000BF30BD10B590F8373003EB4303A04C91
:104FA00004EB83010B893BB901230B810023C36010
:104FB00003610860486009E00B895B1C0B810B688A
:104FC000C360002303610A681061086010BD10B55A
:104FD00090F8373003EB4303914C04EB83010B89CA
:104FE0003BB901230B810023C36003610860486063
:104FF00008E00B895B1C0B810023C3604A680261D7
:10500000D060486010BD10B5044694F8370000F039
:1050100083FB94F8370084490978884203D12046FD
:10502000FFF7D5FF02E02046FFF7B4FF10BD10B533
:105030000446204601F0C4F894F8360000F004005D
:1050400010B92046FFF7DFFF10BD70B505460C46CE
:10505000164694F83600082847D2DFE800F0040529
:1050600008090607272800BF00BF00BF3EE000BFB9
:1050700094F83400032804D1324621462846FFF72D
:1050800077FF0020E065A4F86000266415B1204693
:10509000FFF756FF2046FFF7CAFF00203434A07008
:1050A00001206070002004F834091FE000BF94F86C
:1050B0003400032804D1324621462846FFF758FF22
:1050C0000020E065A4F86000266415B12046FFF7D3
:1050D00037FF204601F074F804203434A07001201A
:1050E0006070002004F8340900E000BF00BF70BD0C
:1050F0002DE9F04304460F4684F83770256BB4F869
:105100003E8013E0D5F80C9009F10806308901289B
:1051100007D929463046FFF7F2FE29463046FFF709
:1051200006FE2035A8F101001FFA80F8B8F1000F43
:10513000E8D1BDE8F0830021016041600181704742
:1051400003895B1C038103684B6000230B600268CA
:1051500002B1116001600389012B00D141607047E9
:1051600030B50346086BCC8F08E0C5689D4202D17C
:105170000361C26104E02030651EACB2002CF4DC97
:1051800000BF30BD70B506460C46154694F8360093
:1051900008284BD2DFE800F0040508090607262797
:1051A00000BF00BF00BF42E000BF94F834000328F6
:1051B00004D12A4621463046FFF7D2FF0020E065A1
:1051C000A4F8600025642046FFF7BAFE2046FFF7EA
:1051D0002EFF00203434A07002206070002004F8FC
:1051E000340924E000BF94F83400032804D12A468F
:1051F00021463046FFF7B4FF0020E065A4F86000C8
:105200002564204600F0DCFF2046FFF799FE0420CD
:105210003434A07002206070002004F8340906E0E5
:10522000E02D0020D80000209400002000BF00BF27
:1052300070BDF0B50446059E086BCD8F0AE0C768C7
:10524000A74204D1046142610383C66104E02030B7
:105250006F1EBDB2002DF2DC00BFF0BD2DE9F8439A
:1052600006460C4617469846089D94F836000828CE
:1052700048D2DFE800F0040508090607272800BF28
:1052800000BF00BF3FE000BF94F83400032807D1FF
:1052900043463A46214630460095FFF7CAFF03E0F1
:1052A000E765A4F86080256416B12046FFF748FE44
:1052B0002046FFF7BCFE00203434A070607004F874
:1052C000340920E000BF94F83400032807D1434696
:1052D0003A46214630460095FFF7ABFF03E0E7650D
:1052E000A4F860802564204600F06AFF16B12046CD
:1052F000FFF726FE04203434A0700020607004F80C
:10530000340900E000BF00BFBDE8F88310B50146D6
:105310000C8924B1012C03D0022C0CD101E000BF78
:1053200014E008684A6802610024C4601461D06017
:105330000A6048600AE008684A68C36800241C6183
:10534000C4600261D0600B60486000BF00BF10BD48
:105350002DE9FC5F0446894615461E46DDF830A05F
:1053600000200090A8462F46701E80B201904FF09A
:10537000000B07E05744C8F80070B8460BF1010075
:105380001FFA80FB01988345F4DB0020C8F8000079
:1053900000BF00BF01F0F8FD009000BF00BF3D4816
:1053A0002060C4F808906560E560A6826682A4F873
:1053B00010A039480088401C3749088000BF00BF52
:1053C000009801F0E5FD00BF00BF00210D980180AD
:1053D000BDE8FC9F2DE9F04104460D46002700BFC3
:1053E00000BF01F0D1FD074600BF00BFA08A60B931
:1053F00000BF00BF384601F0CBFD00BF00BF45F243
:10540000C26028800020BDE8F081E6683068E06076
:10541000A08A401EA08200BF00BF384601F0B8FD40
:1054200000BF00BF002028803046ECE72DE9F041A6
:1054300004460D461646002700BF00BF01F0A4FD3C
:10544000074600BF00BFA08A618A88420BDB00BF0D
:1054500000BF384601F09CFD00BF00BF45F2BA60B6
:105460003080BDE8F081E0682860E560A08A401CDB
:10547000A08200BF00BF384601F08AFD00BF00BF18
:105480000020308000BFECE70021034A118001803A
:10549000704700004D454D208A00002070B502463F
:1054A0000B461046114610315E1EB5B2002408E0CE
:1054B0000160002646600681C66010301031661C0F
:1054C000B4B2AC42F4DB0026066046600681C660DA
:1054D00070BD70B504460D46164629462046FFF7B6
:1054E000DDFF7C480168681E04EB0010016079480C
:1054F000046080882844774988800020308070BD0F
:1055000010B504467448018874480068FFF7C6FF68
:10551000724800686F4908606F48008888800020E2
:10552000C880208010BD70B50446002500BF00BFB4
:1055300001F02AFD054600BF00BF0020A08100BF8A
:1055400000BF284601F024FD00BF00BF70BD10B5AC
:10555000014648894B89002B17DD0A685D4B1B68A3
:1055600013605C4C4B6823602346DB884C891B1B13
:10557000584CE38023469B884C892344554CA38098
:1055800000234B818B810B604B6010BD0181002299
:1055900042818281026042607047F0B504460D4648
:1055A000608940B90020288002B1106046F2925014
:1055B00018800020F0BD61684E68088928800AB113
:1055C000C868106008686060606818B900202060D2
:1055D000608102E06089401E60813E48006808608A
:1055E0003C4801608088401C3A4FB8803846C088EB
:1055F000401EF880002018803046DBE72DE9F0419E
:105600000D46DDE90674B0F80AC0B0F80880C4455C
:1056100005DB46F2935CA4F800C0BDE8F081DFF83A
:10562000B4C0BCF804C0BCF1000F04D145F21D7C2D
:10563000A4F800C0F1E7DFF89CC0DCF80010DFF848
:105640009480D1F800C0C8F800C0C446BCF804C0BB
:10565000ACF1010CA8F804C0C446BCF806C00CF1BB
:10566000010CA8F806C0B0F80AC0BCF1000F06D1C2
:10567000016041604FF0010CA0F80AC017E003F090
:10568000100CBCF1000F07D1066831604FF0000C20
:10569000C1F800C0016004E0D0F804C0C1F800C047
:1056A0004160B0F80AC00CF1010CA0F80AC0B0F8D3
:1056B0000AC0B0F80C80C44503DDB0F80AC0A0F8F9
:1056C0000CC04D600A81CF604FF0000CA4F800C000
:1056D00000BFA2E78C000020CC730008D473000840
:1056E000002004E000211C4A42F82010401C02283F
:1056F000F8D3704770B50025174C03E005F1200082
:10570000C5B2241D20680028F8D0206801F043FCB1
:105710002844C5B2284670BD30B5420900F01F03C9
:105720000121C3F11F04A1400B4C54F822400C434B
:10573000094D45F8224030BD30B5420900F01F0345
:105740000121C3F11F04A140034C54F822408C43B3
:10575000014D45F8224030BD7C00002010B50446C4
:1057600000208C4908608C4908608C49086000F072
:1057700021FF01F015FB0020208010BDF8B5044684
:1057800000266A460021022000F040FFBDF800001C
:1057900018B1BDF800002080F8BD00BF00BF01F0C7
:1057A000F3FB064600BF00BF00207D49086000BF34
:1057B00000BF304601F0ECFB00BF00BF0025794878
:1057C000006879490968884205D9764800687649B1
:1057D0000968B0FBF1F525B9724800680A21B0FBF1
:1057E000F1F56A460021284600F010FF00BF00BF17
:1057F00001F0CAFB064600BF00BF002065490860F3
:10580000674800686949086001206949087000BF5D
:1058100000BF304601F0BCFB00BF00BF002020806D
:1058200000BFB9E708B5002700BF06E05E49096878
:1058300048006A46002100F0E9FE5D480078012832
:10584000F4D16846FFF78AFF00245648006856499D
:105850000968884205D95348006853490968B0FB74
:10586000F1F424B94F4800680A21B0FBF1F44AE092
:10587000002600BF00BF01F087FB074600BF00BF46
:10588000474800684B49086000204549086000BF50
:1058900000BF384601F07CFB00BF00BF43480068F2
:1058A00044490968884213D94048006860B14148BA
:1058B0000068642148433D490968B0FBF1F0C0F13C
:1058C00064003D49087006E064203B49087002E02E
:1058D00064203949087001F0E6FA38480078012858
:1058E00005D10020354908706846FFF737FF75423B
:1058F00028480068854201D9264805606A4600218B
:10590000204600F083FEB3E710B58AB004460020BD
:105910002349086027490860244908602449087021
:10592000264908702648006820B946F62C60208079
:105930000AB010BD2348006823490968884203D291
:1059400046F62D602080F3E7204800783F2803D3F7
:1059500046F273202080EBE7032000210591CDE97A
:1059600007040691084617490968194A1268144B3A
:105970001B68CDE90132CDE90310144800780023FB
:10598000AFF25F1213A10090174800F05FF800BF5C
:10599000CEE70000AC000020C0000020C8000020BE
:1059A0009C000020F4730008DC730008A0000020B5
:1059B000A8000020A400002098000020B0000020D3
:1059C000E0730008E8730008F0730008D87300085B
:1059D000E473000875432F4F532D494949205374F0
:1059E0006174205461736B00E030002010B50446F0
:1059F00000202060A0606060E06020616061A061C4
:105A0000E061F9A0206200206062A062E062206490
:105A1000E065A4F86000002104F16400FFF7B6FD22
:105A200000203434206160606064206420814FF085
:105A3000004060610020A061E0612062606220702F
:105A40006070A0704020E070343C10BD2DE9FF4F25
:105A500085B0044690469946DDF854A0199E139DE2
:105A60000020039012983F2809D1E148844206D0D3
:105A700046F273211A98018009B0BDE8F08F2046E4
:105A8000FFF7B4FF00211A98018006F0010060B111
:105A900006F0020048B12F468B4604E00020386033
:105AA0003F1D0BF1010BD345F8D3149805EB800093
:105AB0000490CDE900A62A4649464046049B01F0E1
:105AC000F6F90746C4F82880C4F82C90069820629E
:105AD000129884F8370027600498A06017986065D2
