:020000040800F2
:1000000010370020450100084D2F00084F2F000831
:10001000532F0008572F00085B2F00080000000036
:100020000000000000000000000000005F2F00083A
:10003000612F000800000000F36D0008632F000826
:100040005F0100085F0100085F0100083D33000800
:100050005F0100085F0100084F3100085F010008E0
:100060005F0100085F0100085F0100088F2F000892
:100070005F0100085F0100085F0100085F010008E0
:100080005F0100085F010008732F00085F0100088E
:100090005F0100085F0100085F0100085F010008C0
:1000A0005F0100085F0100085F0100085F010008B0
:1000B0000D3300085F0100085F0100085F010008C0
:1000C0005F0100085F0100085F0100085F01000890
:1000D0005F010008B92F00085F0100085F010008F8
:1000E000D33100085F0100085F0100085F010008CC
:1000F0005F0100085F0100085F0100085F01000860
:100100005F0100085F0100085F0100085F0100084F
:100110005F0100085F0100085F0100085F0100083F
:100120005F0100085F0100085F0100085F0100082F
:10013000DFF80CD006F05EFF00480047192F0008DA
:10014000103700200648804706480047FEE7FEE7D4
:10015000FEE7FEE7FEE7FEE7FEE7FEE7FEE7FEE777
:1001600045020008310100080CB500200190009004
:100170006B48006840F480306949086000BF6848F7
:10018000006800F4003000900198401C0190009835
:1001900018B90198B0F5A06FF1D16148006810F46A
:1001A000003F02D00120009001E000200090009864
:1001B000012842D15B48006840F0100059490860AE
:1001C0000846006820F0030008600846006840F018
:1001D000020008605248406851494860084640683B
:1001E00048600846406840F48060486008464068BF
:1001F00020F47C1048600846406840F4E8104860ED
:100200000846006840F08070086000BF44480068FD
:1002100010F0007FFAD04248406820F003004049C7
:1002200048600846406840F00200486000BF3C4813
:10023000406800F00C000828F9D10CBD10B5FFF79C
:1002400093FF10BD10B53648006840F001003449F6
:10025000086008464068344908403149486008460B
:100260000068324908402E4908600846006820F4BA
:10027000802008600846406820F4FE0048604FF483
:100280001F008860FFF7DAFF4FF000602849086020
:1002900010BD10B5002100200022214B5B6803F047
:1002A0000C0121B1042906D0082928D107E0214BEF
:1002B000214C236027E01F4B1F4C236023E0184B89
:1002C0005B6803F47010164B5B6803F48032022302
:1002D00003EB904022B9194B4343174C23600DE0C8
:1002E0000F4B5B6813F4003F04D0144B4343124C94
:1002F000236003E00F4B43430F4C236003E00D4B9F
:100300000D4C236000BF00BF054B5B68C3F30313B4
:100310000B4CE15C084B1B68CB40074C236010BDC5
:1003200000100240002002400000FFF8FFFFF6FE30
:1003300008ED00E000127A000000002000093D00F6
:100340000400002031490143314A1160704770B503
:10035000002100230F22C4780CB32D4C246804F430
:10036000E064C4F5E064210AC1F10403CA404478A2
:1003700004FA03F18478144021430901254C0678DE
:10038000A155047804F01F050124AC4005786D11D7
:100390004FF0E02606EB8505C5F8004109E004783A
:1003A00004F01F050124AC401B4D0678761145F87A
:1003B000264070BD194A0A400243154B1B1F1A60A4
:1003C000704739B1124A121D12680243104B1B1DAF
:1003D0001A6006E00E4A121D126882430C4B1B1D68
:1003E0001A607047042808D14FF0E021096941F0F4
:1003F00004014FF0E022116107E04FF0E0210969AC
:1004000021F004014FF0E022116170470000FA056D
:100410000CED00E000E400E080E100E080FFFF1F61
:1004200010B50446FA48844208D10121401501F074
:1004300071FB0021601501F06DFB17E0F548844267
:1004400008D10121001501F065FB0021201501F004
:1004500061FB0BE0F048844208D10121C80301F0A0
:1004600059FB00214FF4004001F054FB10BD30B5A2
:100470000246002000235068E84C20400D790C68AB
:1004800044EA0524204350609068E54C2040D1E9BF
:1004900002542C434D7944EA450420439060D06ACD
:1004A00020F470000C7C641EE4B2234340EA035045
:1004B000D06230BD00210160017141718160C16075
:1004C00001210174704721B1826842F0010282600B
:1004D00003E0826822F001028260704721B18268E5
:1004E00042F48072826003E0826822F4807282604B
:1004F000704710B50023CBB21AB144681C43446066
:1005000002E044689C43446010BD816841F00801EA
:1005100081607047014600208A6812F0080F01D000
:10052000012000E000207047816841F004018160F3
:100530007047014600208A6812F0040F01D00120A4
:1005400000E00020704721B1826842F4A00282607E
:1005500003E0826822F4A002826070470146002016
:100560008A6812F4800F01D0012000E0002070475B
:1005700010B50A4600210023416821F46041531E52
:1005800041EA4331416010BD21B1426842F400624A
:10059000426003E0426822F4006242607047F0B5B6
:1005A00004460D4600200021092D11DDE068A5F16B
:1005B0000A0606EB4607072606FA07F18843A5F167
:1005C0000A0606EB460603FA06F10843E0600CE073
:1005D000206905EB4507072606FA07F1884305EB76
:1005E000450603FA06F108432061072A0FDA606B1B
:1005F000561E06EB86071F2606FA07F18843561E8D
:1006000006EB860605FA06F10843606322E00D2A30
:100610000FDA206BD61F06EB86071F2606FA07F1B6
:100620008843D61F06EB860605FA06F108432063C9
:1006300010E0E06AA2F10D0606EB86071F2606FA17
:1006400007F18843A2F10D0606EB860605FA06F1CE
:100650000843E062F0BD21B1826842F480128260FA
:1006600003E0826822F48012826070470146C86C01
:1006700080B2704766484C300068704721B14268CC
:1006800042F48062426003E0426822F48062426089
:10069000704721B1426842F48052426003E04268F0
:1006A00022F48052426070470A460021816821F49A
:1006B000E04111438160704721B1826842F40042F9
:1006C000826003E0826822F400428260704721B1B8
:1006D000826842F40212826003E0826822F402120D
:1006E00082607047014600208A6812F4001F01D022
:1006F000012000E000207047F0B5044615460020B8
:1007000000220026092911DDE068A1F10A0707EBA4
:10071000470C072707FA0CF29043A1F10A0707EBF1
:10072000470703FA07F21043E0600CE0206901EB91
:10073000410C072707FA0CF2904301EB410703FA3B
:1007400007F210432061A06BC0F30156EF1C06F1C5
:10075000010CA7EB0C0707EB870C1F2707FA0CF21D
:100760009043EF1C06F1010CA7EB0C0707EB870782
:1007700001FA07F21043A063F0BD10B50A4600214C
:100780000023816B21F44011531E41EA0351816320
:1007900010BD08B5002300930090009B0B4400930C
:1007A000009B1A6008BD08B5024600200090009228
:1007B00001F12800009B184400900098006880B266
:1007C00008BD0A4600214168164B1940114341609B
:1007D00070474162826270470A460021416821F0F9
:1007E0001F0111434160704740B109490831096850
:1007F00041F40001064A0832116007E0044908315B
:10080000096821F40001024A0832116070470000B3
:100810000024014000280140003C0140FFFEF0FFA1
:10082000FDF7F1FFFFFD3FFF0246002013680B427A
:1008300001D0012000E000207047CA4302607047E9
:1008400070B502460020002300240B125568CEB27A
:1008500005EA060415681D4202D00CB1012000E033
:10086000002070BD00220A12D343036070470000CD
:1008700010B5012001F068F9002001F065F910BD04
:100880002A49086070472949091F086070472749AD
:1008900084310860704701460020254A10884FF6D1
:1008A0007F4210400843224A1080704701460020D2
:1008B0001F4A10884FF68072104008431C4A10806F
:1008C000704708B500220092194A2C3A0092009A0B
:1008D00002440092009A116008BD08B5014600204C
:1008E000009013482C38009000980844009000981D
:1008F000008808BD0D489C300068C0B270470C48A5
:100900000830008840F0010009490831088070472C
:100910000648A0300068C0B270470548083000881B
:1009200040F00200024908310880704704860D42F9
:100930002C6C004010B50121480701F0F8F80021A7
:100940004FF0005001F0F3F810BD30B50022002345
:100950005A4C226840F6FE748440A243D1E9004517
:100960002C438D682C43CD6844EA050303FA00F458
:100970002243524C226030BD002101604160816001
:10098000C160704739B14D4A1268012383401A4350
:100990004A4B1A6006E0494A1268012383409A4391
:1009A000464B1A60704741B1444A12684FF4805375
:1009B00083401A43414B1A6007E0404A12684FF4E3
:1009C000805383409A433D4B1A60704710B551B134
:1009D0003A4A121D126804090123A3401A43374BF7
:1009E0001B1D1A6009E0354A121D12680409012313
:1009F000A3409A43314B1B1D1A6010BD40B12F49D3
:100A0000091D096841F003012C4A121D116007E01D
:100A10002A49091D096821F00301284A121D1160A5
:100A2000704710B53AB1254B1B6801FA00F4234317
:100A3000224C236006E0214B1B6801FA00F4A3431B
:100A40001E4C236010BD08B5002200921B4A009284
:100A500000F10802009B1A440092009A116008BD40
:100A600008B500220092154A009200F11402009B82
:100A70001A440092009A116008BD30B5002400238A
:100A8000082802D142EA012401E042EA01440B4B6A
:100A900000F120052B441C6030BD08B50146002044
:100AA0000090064800902C2000EB9100009A104422
:100AB00000900098006880B208BD000000740040FB
:100AC00001684FF6FE721140016000210160416033
:100AD0008160C1608C49884208D18B4908394968D6
:100AE00041F00F01884A083A51608AE08649143182
:100AF000884208D184490839496841F0F001824AA6
:100B0000083A51607DE080492831884208D17E4909
:100B10000839496841F470617B4A083A516070E0D5
:100B200079493C31884208D177490839496841F40C
:100B30007041754A083A516063E073495031884208
:100B400008D171490839496841F470216E4A083A60
:100B5000516056E06C496431884208D16A490839CD
:100B6000496841F47001684A083A516049E06649B1
:100B70007831884208D164490839496841F0706188
:100B8000614A083A51603CE06049884206D1011F41
:100B9000096841F00F01021F116032E05B49143116
:100BA000884208D15949091F096841F0F001574AA4
:100BB000121F116025E055492831884208D1534958
:100BC000091F096841F47061504A121F116018E052
:100BD0004E493C31884208D14C49091F096841F40B
:100BE00070414A4A121F11600BE048495031884257
:100BF00007D14649091F096841F47021434A121F71
:100C00001160704710B50022026847F6F0739A43EE
:100C10000C6A8B6823430C6923434C6923438C691A
:100C20002343CC6923434C6A23438C6A23431A43EE
:100C30000260CB6843600B6883604B68C36010BD83
:100C40000021016041608160C16001614161816199
:100C5000C161016241628162704721B1026842F064
:100C60000102026004E002684FF6FE731A4002605F
:100C700070471AB103680B43036002E003688B43BB
:100C800003607047416070470146486880B2704712
:100C900001460020002211F0805F03D01B4B083B6F
:100CA0001A6802E0184B083B1A680A4201D001207A
:100CB00000E00020704710F0805F03D01349091F47
:100CC000086002E01049083948607047014600207A
:100CD000002211F0805F03D00C4B083B1A6802E041
:100CE000094B083B1A680A4201D0012000E00020AD
:100CF000704710F0805F03D00449091F086002E0CC
:100D00000149083948607047080002400804024061
:100D1000002044490860091D0860091D0860091D7C
:100D2000086041483F4914310860704700213D493F
:100D30008279002A3AD00A46126803689A430B4621
:100D40001A600A1D126803689A430B1D1A60027923
:100D500011440A6803681A430A60324A083212686A
:100D600003689A432F4B08331A601A1D12680368F0
:100D70009A432C4B0C331A604279102A0ED11A1F59
:100D8000126803681A43274B08331A601A1D126849
:100D900003681A43234B0C331A600DE02149427952
:100DA00011440A6803681A430A6005E00279114495
:100DB0000A6803689A430A60704700210160017164
:100DC0000C21417100218171704716491031096869
:100DD0000143144A10321160704701460020114A45
:100DE000143212680A4201D0012000E0002070474E
:100DF0000C49143108607047014600200022094B5D
:100E00001B6803EA0102074B14331B680B4202D034
:100E10000AB1012000E00020704702491431086047
:100E20007047000000040140FFFF0F000146002052
:100E3000FE4A106800F03800084310607047FB4914
:100E4000096821F00801F94A116011460968014357
:100E500011607047F549096821F01001F34A1160EB
:100E600011460968014311607047F148EF49486035
:100E7000F04848607047EE48EC494860ED484860EB
:100E80007047EA48006940F08000E849086170470F
:100E9000E648006940F08000E4490861704704209A
:100EA000E249C96811F0010F01D001200EE0DF49CD
:100EB000C96811F0040F01D0022007E0DB49C968BE
:100EC00011F0100F01D0032000E00420704700B59E
:100ED00002460423FFF7E3FF034603E0FFF7DFFFCB
:100EE0000346521E012B01D1002AF7D102B9052376
:100EF000184600BD30B5044604254FF43020FFF7F6
:100F0000E6FF0546042D17D1C848006940F00200ED
:100F1000C649086108464461006940F04000086124
:100F20004FF43020FFF7D3FF0546C048006941F673
:100F3000FD710840BD490861284630BD10B5042444
:100F40004FF43020FFF7C3FF0446042C16D1B748F6
:100F5000006940F00400B54908610846006940F0A6
:100F6000400008614FF43020FFF7B1FF0446AF485E
:100F7000006941F6FB710840AC490861204610BD8C
:100F800000B502460423FFF78AFF034603E0FFF79C
:100F900086FF0346521E012B01D1002AF7D102B968
:100FA0000523184600BD10B504244FF43020FFF788
:100FB000E7FF0446042C16D19C48006940F0040069
:100FC0009A4908610846006940F0400008614FF402
:100FD0003020FFF7D5FF04469448006941F6FB71C5
:100FE000084092490861204610BD00208F49C96918
:100FF00011F0020F01D0012000E00020704730B551
:10100000A5250424FFF7F1FF00B100254FF430209F
:10101000FFF75DFF0446042C3AD185488349886078
:10102000844888600846006940F02000086108464E
:10103000006940F0400008614FF43020FFF747FF9F
:101040000446042C1BD17948006941F6DF71084041
:10105000764908610846006940F01000086176484A
:101060000580E002FFF733FF0446052C10D06F48DF
:10107000006941F6EF7108406C49086108E0052CF1
:1010800006D06A48006941F6EF7108406749086177
:10109000204630BD78B506460C4604250020009059
:1010A000E802FFF714FF0546042D24D15F480069CC
:1010B00040F001005D4908613480E802FFF707FF56
:1010C0000546042D10D1B01C0090200C009908801A
:1010D000E802FFF7FCFE05465448006941F6FE7140
:1010E00008405249086106E05048006941F6FE7127
:1010F00008404E490861284678BD70B504460D4643
:101100000426F002FFF7E3FE0646042E11D14748FD
:10111000006940F00100454908612580F002FFF7B1
:10112000D6FE06464148006941F6FE7108403F4937
:101130000861304670BD70B505460E460424E002D5
:10114000FFF7C5FE0446042C17D13948374988609B
:10115000384888600846006940F0100008612E8019
:10116000E002FFF7B4FE0446052C06D02F480069C4
:1011700041F6EF7108402D490861204670BD2DE908
:10118000F04304464FF6FF763746B046B146042595
:10119000E443E6B2C4F30727C4F307484FEA1469EF
:1011A000E802FFF794FE0546042D49D120481F4967
:1011B0008860204888600846006940F01000086197
:1011C000FF2E06D01C4808300680E802FFF77FFE9D
:1011D0000546042D08D1FF2F06D017480A30078096
:1011E000E802FFF774FE0546042D0AD1B8F1FF0F9F
:1011F00007D011480C30A0F80080E802FFF767FE26
:101200000546042D0AD1B9F1FF0F07D00A480E3068
:10121000A0F80090E802FFF75AFE0546052D0FD012
:101220000248006941F6EF71084007E000200240E3
:1012300023016745AB89EFCD00F8FF1F66490861C0
:101240002846BDE8F08330B5054604244FF430202D
:10125000FFF73DFE0446042C41D160485E4988609A
:101260005F4888600846006940F020000861084631
:10127000006940F0400008614FF43020FFF727FE7E
:101280000446042C22D15448006941F6DF7108401D
:10129000514908610846006940F0100008611DB11D
:1012A00000205049088002E0A5204E4908804FF4F4
:1012B0003020FFF70CFE0446052C10D0464800698C
:1012C00041F6EF7108404449086108E0052C06D05A
:1012D0004148006941F6DF7108403F4908612046F6
:1012E00030BDF0B505460E46174604243B483A4942
:1012F00088603B488860E002FFF7E9FD0446042C63
:1013000019D13548006940F010003349086147F0B1
:10131000F800304328433349891C0880E002FFF776
:10132000D6FD0446052C06D02B48006941F6EF7126
:101330000840294908612046F0BD2748C069800857
:1013400070472548006A704700202349096811F05A
:10135000200F01D0012000E00020704729B11E4A73
:10136000126902431C4B1A6104E01B4A1269824352
:10137000194B1A61704701460020012908D1164A0D
:10138000D26912F0010F01D0012008E0002006E030
:10139000114AD2680A4201D0012000E000207047C3
:1013A0000D49C860704704200B49C96811F0010F4E
:1013B00001D001200EE00849C96811F0040F01D0E6
:1013C000022007E00449C96811F0100F01D0032082
:1013D00000E0042070470000002002402301674520
:1013E000AB89EFCD00F8FF1F10B50446CA48844210
:1013F00008D10121042000F08DFB0021042000F021
:1014000089FB46E0C548844208D10121082000F04C
:1014100081FB0021082000F07DFB3AE0C0488442B7
:1014200008D10121102000F075FB0021102000F0F0
:1014300071FB2EE0BB48844208D10121202000F03E
:1014400069FB0021202000F065FB22E0B6488442C1
:1014500008D10121402000F05DFB0021402000F078
:1014600059FB16E0B148844208D10121802000F0E8
:1014700051FB0021802000F04DFB0AE0AC48844283
:1014800007D10121801500F045FB0021A01500F0D7
:1014900041FB10BD10B50121084600F03BFB0021C7
:1014A000012000F037FB10BD2DE9F0410246002578
:1014B0000026002000230024002791F803C00CF030
:1014C0000F0591F803C01CF0100F03D091F802C073
:1014D0004CEA050591F800C0BCF1000F31D014684A
:1014E00000202BE04FF0010C0CFA00F3B1F800C023
:1014F0000CEA03069E4220D183004FF00F0C0CFA39
:1015000003F7BC4305FA03FC4CEA040491F803C05A
:10151000BCF1280F06D14FF0010C0CFA00FCC2F808
:1015200014C00AE091F803C0BCF1480F05D14FF098
:10153000010C0CFA00FCC2F810C0401C0828D1D3E2
:101540001460B1F800C0BCF1FF0F34DD5468002016
:101550002EE000F1080C4FF0010808FA0CF3B1F886
:1015600000C00CEA03069E4221D183004FF00F0C0D
:101570000CFA03F7BC4305FA03FC4CEA040491F8A7
:1015800003C0BCF1280F05D100F1080C08FA0CF8D3
:10159000C2F8148091F803C0BCF1480F07D100F1E4
:1015A000080C4FF0010808FA0CF8C2F81080401C33
:1015B0000828CED35460BDE8F0814FF6FF7101805A
:1015C000022181700421C170704702460020936897
:1015D0000B4201D0012000E00020704701468868DE
:1015E00080B2704702460020D3680B4201D0012030
:1015F00000E0002070470146C86880B27047016172
:101600007047416170470AB1016100E04161704774
:10161000C16070474FF480320A4382618161826108
:1016200082698269704702460020424B18684FF673
:101630008073184040EA021008433E4B1860704720
:101640003D49C8617047F0B50A46002300240021D7
:10165000002500F00046B6F1004F02D1354EF16989
:1016600001E0344E7168C0F3034583B200F44016C4
:10167000B6F5401F08D121F070612E4E766826F035
:1016800070662C4F7E6012E000F48016B6F5801F65
:1016900006D1032606FA05F4A14341F0706106E085
:1016A000460D360103FA06F6B14341F0706122B1EE
:1016B000460D360103FA06F6314300F00046B6F156
:1016C000004F02D11B4EF16101E01A4E7160F0BD76
:1016D00030B500228B071C0F0F2303FA04F2154BC1
:1016E00008338C1053F824309343124C08348D1077
:1016F00044F8253023468C1053F824308C07240FEF
:1017000000FA04F423430B4C08348D1044F82530C0
:1017100030BD0A490860704700080140000C0140D4
:10172000001001400014014000180140001C01405D
:10173000002001400000014000002042DC00204267
:1017400010B50121080700F0F2F900214FF0805098
:1017500000F0EDF910BD294908627047274908617A
:10176000704701460020264A106820F0E000084338
:101770001060704723490860704710B5024600208A
:101780001F4B186820F00300104318601E4B1B68A5
:1017900043F004031C4C2360012901D130BF00E059
:1017A00020BF194B1B6823F00403174C236010BDA6
:1017B0001348006840F004001149086008460068BA
:1017C00040F0020008601048006840F004000E4934
:1017D000086000BF00BF30BF704701460020084AC4
:1017E00052680A4201D0012000E0002070470449FD
:1017F000096841EA8001024A1160704700000E4208
:1018000000700040A0000E4210ED00E0DD480068CE
:1018100040F00100DB49086008464068DA490840AA
:10182000D849486008460068D8490840D54908604A
:101830000846006820F4802008600846406820F4CC
:10184000FE0048604FF41F0088607047CD4909686A
:1018500021F48031CB4A11601146096821F48021BE
:101860001160B0F5803F03D0B0F5802F0ED106E0B7
:10187000C449096841F48031C24A116007E0C14996
:10188000096841F4A021BF4A116000E000BF00BF19
:10189000704710B501460022002300204A11012A9A
:1018A00002D1B84C236806E0022A02D1B54C236A63
:1018B00001E0B44C636A01F01F02012494401C4211
:1018C00001D0012000E0002010BD38B500200090BC
:1018D0000024002500BF3120FFF7DBFF05460098FC
:1018E000401C00900098B0F5A06F01D0002DF2D000
:1018F0003120FFF7CEFF08B1012400E0002420468C
:1019000038BD014600209F4A106820F0F80040EAE8
:10191000C100106070479E49086070470246002071
:10192000984B586820F47C1042EA01031843954B09
:101930005860704796490866704701460020914AF2
:10194000506820F003000843506070478D4840689D
:1019500000F00C007047014600208A4A506820F0D1
:10196000F00008435060704701460020854A5068E7
:1019700020F4E06008435060704701460020814A2F
:10198000506820F4605040EAC1005060704729B1AF
:101990007C4A527A02437B4B5A7204E0794A527A6B
:1019A0008243784B5A7270477A4908607047014603
:1019B0000020744A506820F440400843506070474B
:1019C0000021754A11706F4A82F82010012802D058
:1019D000042808D103E001216F4A117004E00521B9
:1019E0006D4A117000E000BF00BF70476B4908608E
:1019F00070476449096A0143624A11627047674946
:101A000044390860704730B50021002200240023CB
:101A10005C4D6D6805F00C0121B1042905D0082941
:101A200023D105E05E4D056022E05D4D05601FE0BD
:101A3000544D6D6805F47012524D6D6805F4803494
:101A4000022505EB92421CB9564D554305600BE04B
:101A50004C4D6D6815F4003F03D0524D5543056061
:101A600002E04F4D5543056002E04D4D056000BF5B
:101A700000BF444D6D6805F0F00109094A4D6B5CEB
:101A80000568DD4045603F4D6D6805F4E061090A79
:101A9000454D6B5C4568DD4085603A4D6D6805F4E9
:101AA0006051C90A404D6B5C4568DD40C560354DED
:101AB0006D6805F44041890B3C4D6B5CC568B5FB16
:101AC000F3F5056130BD29B12E4A526902432D4B11
:101AD0005A6104E02B4A526982432A4B5A6170478B
:101AE00029B1284A92690243264B9A6104E0254AAB
:101AF00092698243234B9A61704729B1214AD26986
:101B00000243204BDA6104E01E4AD26982431D4B36
:101B1000DA61704729B11B4AD2680243194BDA6077
:101B200004E0184AD2688243164BDA60704729B144
:101B3000144A12690243134B1A6104E0114A1269F4
:101B40008243104B1A61704714494039086070474E
:101B50000F49C86470470B49C87170470948406A0B
:101B600040F0807007494862704701460020054AEE
:101B700092680A4201D0012000E00020704701492C
:101B800088727047001002400000FFF8FFFFF6FE69
:101B900000004242D80042422010024080044242EB
:101BA00000127A0000093D001400002024000020EB
:101BB00029B14F4A128802434D4B1A8004E04C4A27
:101BC000128882434A4B1A8070474948001D00889A
:101BD00040F010004649091D088070474448001D28
:101BE00000884FF6EF7108404149091D0880704791
:101BF00000213F481C300188001F008841EA004056
:101C0000704700B50246FFF7E0FF100C3849183165
:101C10000880091D0A80FFF7E1FF00BD00B50246FC
:101C2000FFF7D3FFC2F30340314908310880091D93
:101C30000A80FFF7D3FF00BD00B50246FFF7C5FFDE
:101C4000100C2B4920310880091D0A80FFF7C6FFC0
:101C500000BD00202649103109880907080B2449D6
:101C6000143109880843704700BF2148001D0088CF
:101C700010F0200FF9D070471D48001D00884FF666
:101C8000F77108401A49091D088000BF1848001D57
:101C9000008810F0080FF9D0704701460020144A60
:101CA000121D12880A4201D0012000E00020704776
:101CB0000F49091D098881430D4A121D1180704783
:101CC000014600200A4A121D12880A40D0B2084A72
:101CD00012880A4202D008B1012000E000207047BB
:101CE0000349091D09888143014A121D118070476B
:101CF0000028004010B50446FE48844208D1012166
:101D0000C014FFF707FF0021E014FFF703FFC4E052
:101D1000B4F1804F08D101210846FFF708FF0021E8
:101D20000120FFF704FFB8E0F348844208D1012105
:101D30000220FFF7FCFE00210220FFF7F8FEACE0D6
:101D4000EE48844208D101210420FFF7F0FE002173
:101D50000420FFF7ECFEA0E0E948844208D101210D
:101D60000820FFF7E4FE00210820FFF7E0FE94E0E2
:101D7000E448844208D101211020FFF7D8FE002159
:101D80001020FFF7D4FE88E0DF48844208D101210B
:101D90002020FFF7CCFE00212020FFF7C8FE7CE0CA
:101DA000DA48844208D101214014FFF7B3FE002134
:101DB0006014FFF7AFFE70E0D548844209D10121DD
:101DC000C804FFF7A7FE00214FF40020FFF7A2FE92
:101DD00063E0D048844209D101210805FFF79AFE4B
:101DE00000214FF48010FFF795FE56E0CA48844268
:101DF00009D101214805FFF78DFE00214FF40010A5
:101E0000FFF788FE49E0C548844208D101214020FF
:101E1000FFF78DFE00214020FFF789FE3DE0C0481E
:101E2000844208D101218020FFF781FE002180201B
:101E3000FFF77DFE31E0BB48844208D101218015C7
:101E4000FFF775FE0021A015FFF771FE25E0B648EB
:101E5000844209D101210804FFF75CFE00214FF400
:101E60008030FFF757FE18E0B048844209D10121C5
:101E70004804FFF74FFE00214FF40030FFF74AFE01
:101E80000BE0AB48844208D101218804FFF742FEF1
:101E900000214FF48020FFF73DFE10BD0022028894
:101EA000944B98420ED0994B98420BD0B0F1804F92
:101EB00008D0914B984205D0904B984202D0904B5D
:101EC000984204D14FF68F731A404B881A438D4BBA
:101ED000984207D08C4B984204D04FF6FF431A40EB
:101EE000CB881A4302808B8883850B880385814BBE
:101EF00098420BD0854B984208D08B4B984205D026
:101F00008A4B984202D08A4B984201D10B7A0386C1
:101F100001238382704770B5002400220023058CC2
:101F20004FF6FE7635400584028C8388048B4FF68D
:101F30008F752C40B51E2C400D882C43751E2A40F1
:101F40000D892A434D882A436A4DA8420BD06F4D14
:101F5000A84208D0744DA84205D0744DA84202D0C2
:101F6000734DA84213D14FF6F7752A404D892A4385
:101F70004FF6FB752A408D882A434FF6FF652B40AC
:101F80004FF6FF552B408D892B43CD892B43838002
:101F90000483CD888586028470BD70B5002400223C
:101FA0000023058C4FF6EF7635400584028C83883C
:101FB000048B48F6FF752C404FF6FF452C400D88EA
:101FC0004FF6FF7606EA05252C434FF6DF752A40CB
:101FD0000D8906EA05152A434D8806EA05152A43A8
:101FE000444DA84202D0494DA8421DD14FF67F75FD
:101FF0002A404D894FF6FF7606EA05152A434FF62B
:10200000BF752A408D8806EA05152A434FF6FF352D
:102010002B404FF2FF752B408D8906EA85052B4337
:10202000CD8906EA85052B4383800483CD88058707
:10203000028470BD70B5002400220023058C4FF689
:10204000FF6635400584028C8388848B4FF68F753C
:102050002C404FF6FC752C400D882C434FF6FF5555
:102060002A400D894FF6FF7606EA05252A434D885A
:1020700006EA05252A431F4DA84202D0234DA84257
:102080001DD14FF2FF752A404D894FF6FF7606EAC3
:1020900005252A434FF6FF352A408D8806EA052597
:1020A0002A434EF6FF752B404DF6FF752B408D8968
:1020B00006EA05152B43CD8906EA05152B438380D7
:1020C0008483CD888587028470BD70B5002200238B
:1020D0000024058C4EF6FF7635400584038C8488F9
:1020E000828B48F6FF752A404FF6FF452A400D883F
:1020F00020E00000002C01400004004000080040E7
:10210000000C00400010004000140040003401406A
:10211000004C0140005001400054014000180040B4
:10212000001C0040002000400040014000440140ED
:10213000004801404FF6FF7606EA05252A434DF692
:10214000FF752B400D8906EA05352B434D8806EABD
:1021500005352B43FA4DA84202D0FA4DA84208D1CA
:102160004BF6FF752C408D894FF6FF7606EA8515F4
:102170002C4384808283CD88A0F84050038470BDB6
:10218000828B4FF2FF331A408283828B4FF6FF73AC
:1021900003EA01231A4382837047F0B50C461546C3
:1021A000002200210026078C4EF6FF7C07EA0C0770
:1021B0000784828B018C4FF6FF7707EA043640F6DE
:1021C000FF473A404FF6FF7707EA05273A434FF6B5
:1021D000FF7707EA03373A43D94FB8420ED0D94FB9
:1021E000B8420BD0B0F1804F08D0D74FB84205D0DD
:1021F000D64FB84202D0D64FB84206D14DF6FF773F
:10220000394046F48057394305E047F6FF573940D7
:1022100044F48057394382830184F0BD828B4FF6AA
:10222000F3731A408283828B0A4382837047F0B52E
:102230000C461546002200210026078C4FF6FF6C45
:1022400007EA0C070784828B018C4FF6FF7707EAB9
:1022500004264FF60C773A404FF6FF7707EA03174C
:102260002F433A43B64FB8420ED0B64FB8420BD0C8
:10227000B0F1804F08D0B44FB84205D0B34FB84248
:1022800002D0B34FB84206D14FF6FF57394046F45B
:102290008077394305E04FF2FF57394044F48077A7
:1022A000394382830184F0BD028B4FF2FF331A4021
:1022B0000283028B4FF6FF7303EA01231A43028362
:1022C0007047F0B50C461546002200210026078C09
:1022D0004FF6EF7C07EA0C070784028B018C4FF660
:1022E000FF7707EA041640F6FF473A404FF6FF77BC
:1022F00007EA03373A434FF6FF7707EA05273A43E1
:102300008F4FB8420ED08F4FB8420BD0B0F1804FF4
:1023100008D08D4FB84205D08C4FB84202D08C4FB8
:10232000B84206D14FF6DF77394046F010073943FF
:1023300005E04FF65F77394044F0100739430283D8
:102340000184F0BD028B4FF6F3731A400283028BB7
:102350000A4302837047F0B50C461546002200215F
:10236000068C4FF6FE773E400684028B018C4FF6BA
:102370000C7632407E1C06EA03162E433243704E22
:10238000B0420ED06F4EB0420BD0B0F1804F08D0AB
:102390006D4EB04205D06D4EB04202D06C4EB04290
:1023A00006D14FF6FD76314044F00106314305E099
:1023B0004FF6F576314044F0010631430283018443
:1023C000F0BD70B505460C465D4885420ED05D48AF
:1023D00085420BD0B5F1804F08D05B48854205D0CF
:1023E0005A48854202D05A48854200D100E000BFD9
:1023F000208850B92389A28861882846FFF7ABFF5F
:10240000E1882846FFF79EFF25E0208804280AD1AE
:102410002389A28861882846FFF753FFE188284670
:10242000FFF742FF17E0208808280AD12389A288F5
:1024300061882846FFF7FBFEE1882846FFF7EEFE9D
:1024400009E02389A28861882846FFF7A6FEE18873
:102450002846FFF795FE70BD2DE9F04105460C4674
:1024600000260127608808B9022600E00026A0881F
:10247000012801D1022700E001272088A0B9238983
:10248000A28861882846FFF766FFE1882846FFF7A3
:1024900059FF23893A4631462846FFF712FFE18863
:1024A0002846FFF701FF13E02389A28861882846A8
:1024B000FFF707FFE1882846FFF7F6FE23893A4633
:1024C00031462846FFF747FFE1882846FFF73AFFE5
:1024D000BDE8F0810A884B881A438B881A43CB8861
:1024E0001A430B891A434B891A438B891A43A0F864
:1024F000442070474FF6FF71818000210180C18028
:102500004180017270470021018041808180C1803B
:10251000018141818181C181704700210180418019
:10252000012181800021C18001817047002101804B
:1025300041808180C180018141818181704700009B
:10254000002C01400034014000040040000800401D
:10255000000C004021B1028842F00102028004E038
:1025600002884FF6FE731A400280704731B1B0F80E
:10257000442042F40042A0F8442005E0B0F8442092
:10258000C2F30E02A0F8442070471AB183890B43AE
:10259000838102E083898B43838170478182704706
:1025A00041EA0203A0F8483070471AB183890B430F
:1025B000838102E083898B438381704701894FF6D1
:1025C000F8721140018170470A46002101894FF6D7
:1025D0008F73194011430181704730B504460D4691
:1025E00029462046FFF7F0FF208940F007002081B0
:1025F00030BD2DE9F04104460D4616461F46602DBC
:1026000006D13B46012231462046FFF75AFE05E03F
:102610003B46012231462046FFF79DFE29462046D3
:10262000FFF7D2FF208940F007002081BDE8F0814C
:1026300030B50C4600210189C9B24FF6FF7505EA95
:102640000325154325432943018130BD2DE9F04180
:1026500005460E4617469846002443463A463146FC
:102660002846FFF7E5FF2C894FF6F870044044F048
:1026700007044FF68F70044044F070042C81BDE8CD
:10268000F081F0B504460D4616461F463B463246DD
:1026900029462046FFF7CCFF208940F48040208166
:1026A000F0BD0185828270470A46002101884FF6FD
:1026B0008F731940114301807047F0B50C461546E1
:1026C0001E460021002200230189028B038C4FF655
:1026D000F877394021434FF6FC473A4040F2011762
:1026E0003A434FF6DD773B404FF6FF7707EA061790
:1026F0002F433B43018102830384F0BD0A4600213E
:10270000018B4FF68F7319401143018370470A46BE
:102710000021018B48F6FF7319404FF6FF7303EA5F
:1027200002231943018370470A460021818B4FF62B
:102730008F7319401143818370470A460021818BB2
:1027400048F6FF7319404FF6FF7303EA022319435B
:102750008183704721B1028842F08002028004E048
:1027600002884FF67F731A400280704721B1828839
:1027700042F00402828004E082884FF6FB731A4024
:102780008280704721B1828842F00802828004E092
:1027900082884FF6F7731A408280704721B1828891
:1027A00042F00102828004E082884FF6FE731A40F4
:1027B000828070470A460021018B4FF6F77319405B
:1027C0001143018370470A460021018B4FF2FF73CA
:1027D00019404FF6FF7303EA022319430183704740
:1027E0000A460021818B4FF6F7731940114381830C
:1027F00070470A460021818B4FF2FF7319404FF654
:10280000FF7303EA02231943818370470A460021BC
:10281000018B4FF6FB7319401143018370470A4641
:102820000021018B4FF6FF3319404FF6FF7303EA87
:1028300002231943018370470A460021818B4FF61A
:10284000FB7319401143818370470A460021818B35
:102850004FF6FF3319404FF6FF7303EA0223194383
:10286000818370470A460021018B4FF67F73194020
:102870001143018370470A460021018BC1F30E0109
:102880004FF6FF7303EA02231943018370470A4698
:102890000021818B4FF67F7319401143818370476C
:1028A0000A460021818BC1F30E014FF6FF7303EA44
:1028B00002231943818370470A460021018C4FF699
:1028C000FD7319401143018470470A460021018CB1
:1028D0004FF6F77319401143018470470A460021EF
:1028E000018C4FF6DF7319404FF6FF7303EA0213B2
:1028F0001943018470470A460021018C4FF67F730B
:1029000019404FF6FF7303EA02131943018470471D
:102910000A460021018C4FF6FF5319404FF6FF7312
:1029200003EA02231943018470470A460021018CFF
:102930004FF2FF7319404FF6FF7303EA0223194366
:10294000018470470A460021018C4DF6FF7319403F
:102950004FF6FF7303EA023319430184704730B521
:10296000002301248C40A3B2048C9C430484048C77
:1029700002FA01F5ADB22C43048430BD30B500231A
:1029800004248C40A3B2048C9C430484048C02FA7B
:1029900001F5ADB22C43048430BD70B50346002070
:1029A00000241846183001258D40ACB21D8CA5437B
:1029B0001D8409B1082909D100EB6100056825F0E3
:1029C000700505600568154305600EE00D1FC5F331
:1029D0004E052844056825F4E045056005684FF676
:1029E000FF7606EA02263543056070BD21B10288F4
:1029F00042F00202028004E002884FF6FD731A40A2
:102A00000280704721B1028842F00402028004E093
:102A100002884FF6FB731A400280704721B182880A
:102A200042F08002828004E082884FF67F731A4071
:102A30008280704702884FF6F7731A40028002883E
:102A40000A430280704782884FF68F731A40828053
:102A500082880A438280704702894FF6F8731A40D1
:102A6000028102890A430281704702894FF67F730F
:102A70001A40028102890A430281704781847047AB
:102A800081857047818670470187704781877047CD
:102A9000A0F84010704702884FF6FF431A400280AA
:102AA00002880A43028070470146888E70470146BB
:102AB000088F70470146888F70470146B1F8400083
:102AC00070470146888C70470146088D7047024662
:102AD0000020138A0B4201D0012000E00020704743
:102AE000CA430282704730B502460020002300240A
:102AF000158A05EA0103958905EA010413B10CB1B1
:102B0000012000E0002030BDCA430282704700006F
:102B100010B50446FB48844209D101218803FEF721
:102B2000F9FF00214FF48040FEF7F4FF32E0F64851
:102B3000844209D101214804FEF7F9FF00214FF436
:102B40000030FEF7F4FF25E0F048844209D101216E
:102B50008804FEF7ECFF00214FF48020FEF7E7FF2A
:102B600018E0EB48844209D10121C804FEF7DFFFD9
:102B700000214FF40020FEF7DAFF0BE0E548844225
:102B800008D101210805FEF7D2FF00214FF4801083
:102B9000FEF7CDFF10BD2DE9F04786B005460E4685
:102BA0000024A24600BFA1460027B08900B100BFA3
:102BB0002F462C8A4CF6FF700440F08804432C8288
:102BC000AC894EF6F3100440B0883189084371890E
:102BD00008430443AC81AC8A4FF6FF400440B089FF
:102BE0000443AC8201A8FEF70EFFC648874202D11B
:102BF000DDF810A001E0DDF80CA0A88910F4004F6A
:102C000008D00AEBCA0000EB0A1031684900B0FB9B
:102C1000F1F807E00AEBCA0000EB0A1031688900FE
:102C2000B0FBF1F86420B8FBF0F004012009642146
:102C300001FB1089A88910F4004F08D0322000EB66
:102C4000C900B0FBF1F000F00700044308E03220B7
:102C500000EB09106421B0FBF1F000F00F00044319
:102C60002C8106B0BDE8F0874FF4165101600021B9
:102C70008180C18001810C214181002181817047C7
:102C800010B502460020108A4FF2FF0318400B884F
:102C90004C8823438C882343CC88234318431082D9
:102CA00010BD0021018041808180C180704721B129
:102CB000828942F40052828104E082894DF6FF73DA
:102CC0001A4082817047F0B5034600240026002593
:102CD0000020A1F510676A3F00D100BF1846C1F37C
:102CE000421401F01F06012707FA06F5012C01D155
:102CF0000C3004E0022C01D1103000E014301AB185
:102D000007682F43076002E00768AF430760F0BD24
:102D10001AB1838A0B43838202E0838A8B438382C6
:102D20007047028A4FF6F0731A400282028A0A4301
:102D30000282704782894FF2FF731A408281828932
:102D40000A438281704721B1828942F00202828166
:102D500004E082894FF6FD731A4082817047028A2F
:102D60004FF6DF731A400282028A0A4302827047DA
:102D700021B1028A42F48042028204E0028A4BF6C8
:102D8000FF731A4002827047C1F3080282807047C5
:102D900001468888C0F308007047818941F001012D
:102DA00081817047028BD2B20283028B42EA0122F8
:102DB00002837047028B02F47F420283028B0A4334
:102DC0000283704721B1828A42F02002828204E0AD
:102DD000828A4FF6DF731A408282704721B1828A5D
:102DE00042F01002828204E0828A4FF6EF731A40AA
:102DF0008282704721B1828A42F00802828204E016
:102E0000828A4FF6F7731A408282704721B1828915
:102E100042F40042828103E08289C2F30E02828181
:102E2000704721B1828A42F40062828204E0828A81
:102E30004FF2FF731A4082827047828A4FF6FB730B
:102E40001A408282828A0A438282704721B1828A32
:102E500042F00202828204E0828A4FF6FD731A4039
:102E60008282704702460020B1F5007F00D100BF8A
:102E700013880B4201D0012000E00020704701F4CC
:102E80000072B2F5007F00D100BFCA4302807047D4
:102E900070B502460024002300250020A1F510662D
:102EA0006A3E00D100BFC1F3421501F01F030126A5
:102EB00006FA03F3012D02D19689334006E0022D74
:102EC00002D1168A334001E0968A33400C12012663
:102ED00006FA04F41688344013B10CB1012000E066
:102EE000002070BD10B500220023A1F510646A3CDB
:102EF00000D100BF0A1201249440A3B2DC43048035
:102F000010BD00000038014000440040004800406F
:102F1000004C00400050004008B500F05FFC6846DF
:102F200001F04EFD05A004F097F800F03EFB00F024
:102F300066FB684601F096FE002008BD4F53205303
:102F40007461727421210D0A00000000704700BFF7
:102F5000FEE700BFFEE700BFFEE700BFFEE77047E9
:102F6000704710B501F078FD03F035FC01F085FDE8
:102F700010BD10B54FF40871F748FDF761FC01284A
:102F800004D14FF40871F448FDF76CFC10BD10B586
:102F90000220FDF79BFE01280DD10021EE48FDF730
:102FA00092FA0220FDF7A5FE00F076FF04462146C6
:102FB000EAA004F051F810BD2DE9FC4140F2255182
:102FC000EB48FFF765FF01287AD140F22551E84828
:102FD000FFF788FFE648FFF7DBFEC4B2E54800785C
:102FE00010B101286DD147E0E348007830B10128E5
:102FF00010D002281AD0032832D11FE05F2C05D14F
:10300000DD480078401CDC49087002E00020DA4905
:1030100008702FE05F2C05D1D7480078401CD649B6
:10302000087002E00020D449087023E0D2480078FC
:10303000401CD1490870D14804801BE0CE4800787C
:10304000401CCD4908700120CA490870CC48CD49C0
:103050000860CA48008840EA0420C849088009E09E
:103060000020C9490870C4490870C6490860C149B0
:10307000087000BF00BF67E0BF480078071FAA2C98
:103080000AD1BD480078001FBC490988884203D195
:103090000120BD4908704AE0552C2ED1BA4800786D
:1030A00001282AD1B548008800F0DBF90546002D3B
:1030B0003DD0B2480188284603F060FF002605E0B5
:1030C00043E035E0AE48805DA855761CAB480088EB
:1030D0008642F7D30020AC490870A7490870A94977
:1030E0000860A449087001A800230090A348028842
:1030F0002946A64802F040FE19E09F480078001FCC
:103100009E49098888420ADD00209F4908709A4933
:1031100008709A4908809B4908609649087096484B
:103120000078401C9449087096480068C4550BE02C
:10313000002095490870904908709049088091498D
:1031400008608C49087000BF00BFBDE8FC8110B565
:1031500001F082FC0120FDF74FFE012836D100204E
:1031600000F0C2FF142001F050F8894800680128DF
:1031700013D10020864908608648006820F00100CD
:1031800084490860081D006840F00100091D0860BE
:103190000121002000F0B8FF12E001207C49086006
:1031A0007C48006840F001007A490860081D00680A
:1031B00020F00100091D08600021084600F0A4FF6E
:1031C0000120FDF72AFE002000F096FF01F055FCDB
:1031D00010BD10B501F040FC4FF48060FDF70CFE0F
:1031E00001282ED16A48806A012813D1002068493D
:1031F00088626848006820F4806066490860081D9D
:10320000006840F48060091D086001210A2000F078
:103210007BFF12E001205E4988625E48006840F44E
:1032200080605C490860081D006820F48060091D0A
:10323000086000210A2000F067FF4FF48060FDF76E
:10324000ECFD4FF40060FDF7D7FD012802D1C0026C
:10325000FDF7E3FD4FF48050FDF7CEFD012802D1CC
:103260000003FDF7DAFD4FF40050FDF7C5FD01281E
:1032700037D10D2000F038FF142000F0C6FF44487D
:10328000406B012813D10020414948634148006840
:1032900020F400503F490860081D006840F40050C9
:1032A000091D086001210D2000F02EFF12E0012011
:1032B000374948633748006840F400503549086092
:1032C000081D006820F40050091D086000210D2031
:1032D00000F01AFF4FF40050FDF79FFD0D2000F0A5
:1032E0000BFF4FF48040FDF787FD012802D18003DA
:1032F000FDF793FD4FF40040FDF77EFD012802D15C
:10330000C003FDF78AFD01F0B8FB10BD1CB501211B
:103310008807FFF7E8FB01280FD101F09DFB01A80A
:1033200000231A46194600901B4802F025FD012192
:103330008807FFF7E9FB01F0A0FB1CBD10B50120D9
:10334000FEF7BEFC30B10120FEF7CAFCFEF78CFC94
:1033500001F058FA10BD0000002401406164635F71
:1033600076616C75652069732025640D0A00000084
:103370000038014028000020290000202C000020F7
:10338000D4160020300000202A0000205C04002019
:10339000741C002008040140E40000201CB509E072
:1033A00001A800231A4619460090184602F0DAFBDD
:1033B00000F0C8FEF4E71CB509E001A800231A4696
:1033C00019460090184602F0CDFB00F0DBFDF4E753
:1033D0001FB52BE002A8002303AA19460090184647
:1033E00002F0C0FB0446257825B1012D08D0022D3E
:1033F0000ED109E000F0E7FB0FA003F02DFE08E07E
:10340000204600F023FC04E0204600F00FFD00E021
:1034100000BF00BF204600F071F802A80021C823B9
:103420000A46CDE90010084603F025F9D2E710B5A9
:1034300003A003F011FE10BD6F6B0D0A0000000029
:103440002043616C6C4261636B0D0A0070B50446E9
:103450000D4616462B46224631468DA003F0FCFD54
:1034600070BD38B50446142C0FD26946904801F05F
:103470008BFF0546BDF8000028B1BDF800202921CA
:103480008CA0FFF7E3FF284638BD142C11D3642C21
:103490000FD269468C4801F077FF0546BDF8000061
:1034A00028B1BDF80020322182A0FFF7CFFF2846C7
:1034B000EAE7642C12D3B4F5FA7F0FD26946834849
:1034C00001F062FF0546BDF8000028B1BDF80020FC
:1034D0003B2178A0FFF7BAFF2846D5E7B4F5FA7F7D
:1034E0000AD945F2C1600090BDF80020422171A0C8
:1034F000FFF7ACFF0020C7E700BFC5E72DE9F84F95
:1035000005462C46724E06F1C809724F07F57A7AC5
:10351000DFF8C48108F6B83B4C4511D2B4420FD352
:103520006A462146624801F05BFFBDF800000028B2
:1035300039D0BDF800205F215EA0FFF787FF32E0A1
:10354000544511D2BC420FD36A4621465E4801F071
:1035500047FFBDF80000002825D0BDF800206721F6
:1035600054A0FFF773FF1EE05C4510D244450ED314
:103570006A462146554801F033FFBDF8000090B17E
:10358000BDF800206F214BA0FFF760FF0BE045F274
:10359000BF600090BDF8000028B1BDF80020772181
:1035A00044A0FFF753FFBDE8F88F0EB502A8142121
:1035B0000A23474ACDE9001048A13D4801F0A2FE88
:1035C000BDF8080028B1BDF80820862139A0FFF712
:1035D0003DFF02A864210A233E4ACDE9001042A122
:1035E000394801F08FFE02A84FF4FA7106233A4AD7
:1035F000CDE900103FA1354801F084FE0EBD00B5B5
:103600008BB00AA8032100220592CDE9062108907B
:103610000A20502108223A4BCDE90132CDE90310AE
:1036200004200023374A38A100903A4802F0EAF912
:103630000AA8032100220592CDE9062108900A205C
:1036400050210822344BCDE90132CDE90310052089
:103650000023324A32A10090344802F0D3F90AA87C
:10366000032100220592CDE9062108900A2050216D
:1036700008222F4BCDE90132CDE9031007200023AA
:103680002C4A2DA10090304802F0BCF90BB000BDCF
:103690006572726F725B25645D3A2066696C655B6A
:1036A00025735D2C6C696E655B25645D0D0A0000F9
:1036B000801600202E2E5C2E2E5C4170705C727481
:1036C0006F732E630000000098160020B0160020D3
:1036D00018060020E0060020C80A00206D656D5F16
:1036E00070617274310000006D656D5F706172749D
:1036F000320000006D656D5F706172743300000010
:103700001C0300209D3300084558544948616E64ED
:103710006C657200A0020020D8040020D13300089C
:103720004D736748616E646C657200005C04002034
:1037300060010020B733000854494D324869737264
:103740005F54434200000000E400002030B5014611
:10375000B1F1807F01D3012030BD21F07F40401EB8
:103760004FF0E022506150170F22002806DA1301B3
:10377000244C00F00F052D1F635502E01301224C6D
:10378000235400BF00204FF0E02290610720106119
:103790000020E1E71D4800681D4908601B48001F24
:1037A000006848601948083800688860704710B59C
:1037B000184800684FF47A71B0FBF1F42046FFF727
:1037C000C5FF144800684FF47A71B0FBF1F420464D
:1037D000FFF7BCFF08B100BFFEE710BD10B5FFF753
:1037E000E6FF00F019F800F079FC00F0B1F800F005
:1037F0000BFB00F0FFF900F07BFF00F085FB00F011
:103800003BF810BD18ED00E000E400E0F0F7FF1F0A
:10381000C81600200000002008B501218820FEF70E
:103820005FF90120ADF8000010208DF8030003209F
:103830008DF8020069460E48FDF736FE8020ADF88F
:10384000000069460B48FDF72FFE4FF48070ADF87D
:10385000000069460748FDF727FE01210448FDF7EF
:10386000CEFE4FF4C0710348FDF7C9FE08BD00004D
:10387000000C0140001C014008B54FF4E060FCF76B
:1038800061FD25208DF8000000208DF80100012049
:103890008DF802008DF803006846FCF758FD2820DB
:1038A0008DF8000000208DF801008DF80200012045
:1038B0008DF803006846FCF74AFD06208DF80000ED
:1038C00000208DF801008DF8020001208DF8030022
:1038D0006846FCF73CFD1C208DF8000000208DF8A8
:1038E000010003208DF8020001208DF803006846D6
:1038F000FCF72DFD12208DF8000000208DF801004E
:1039000004208DF8020001208DF803006846FCF7C2
:103910001EFD0B208DF8000000208DF80100052011
:103920008DF8020001208DF803006846FCF70FFDBA
:1039300003208DF8000000208DF8010006208DF88E
:10394000020001208DF803006846FCF700FD08BD69
:1039500000B585B0012144F20400FEF7C1F84FF430
:103960000070ADF8100018208DF8130003208DF8BA
:10397000120004A92448FDF797FD4FF48060ADF8CC
:10398000100004208DF8130004A91F48FDF78CFDDA
:103990004FF4E13000900020ADF80400ADF80600CF
:1039A000ADF80800ADF80C000C20ADF80A0069462F
:1039B0001648FFF7F0F8012240F225511348FFF7AF
:1039C00082F901211148FFF772F905B000BD70B509
:1039D00004460D46E1B20D48FFF7D6F900BF80213D
:1039E0000A48FFF73FFA0028F9D0204670BD10B50D
:1039F000044600BF20210548FFF734FA0028F9D01B
:103A00000248FFF7C5F910BD000801400038014029
:103A1000F8B505460C4616460420009000270FE036
:103A200021882846FDF769FB00909DF800000428D6
:103A300002D09DF80000F8BDB81C87B2AD1CA41CD4
:103A4000B742EDDB0420F6E72DE9FC5F05460F46A3
:103A5000144600200190FDF70EFAC5F30A0AC4F3DC
:103A6000CF28C4F30A09CAF50066BAF1000F2FD1B6
:103A7000B8F1000F0AD12846FDF73CFA0090A2B237
:103A800039462846FFF7C4FF009083E00EE0284641
:103A9000FDF730FA00904FF4006239462846FFF7F0
:103AA000B7FF009005F5006507F500675FEA0800BD
:103AB000A8F101011FFA81F8E9D12846FDF71AFAA9
:103AC00000904A4639462846FFF7A2FF009061E081
:103AD000B8F1000F27D1B1451ADD2846FDF70AFAE3
:103AE0000090324639462846FFF792FF0090354451
:103AF0003744A9EB06001FFA80FB2846FDF7FAF9C8
:103B000000905A4639462846FFF782FF009041E070
:103B10002846FDF7EFF90090A2B239462846FFF794
:103B200077FF009036E0A41BC4F3CF28C4F30A0942
:103B30002846FDF7DFF90090324639462846FFF760
:103B400067FF009005F5006507F500670EE0284661
:103B5000FDF7D0F900904FF4006239462846FFF790
:103B600057FF009005F5006507F500675FEA08005C
:103B7000A8F101011FFA81F8E9D1B9F1000F09D0CC
:103B80002846FDF7B7F900904A4639462846FFF720
:103B90003FFF0090FDF77CF90420BDE8FC9F10B5C5
:103BA00003460C46002103E013F8010B6054491C46
:103BB0009142F9D388B210BD0EB50A226946094870
:103BC000FFF7EDFF0EBDFEB506460F4606A207CA7B
:103BD0008DE807000A25034C2A4669462046FFF770
:103BE00033FFFEBD000002080203040506070809B2
:103BF0000101000000B585B001210420FDF770FF30
:103C000001214807FDF779FF3020ADF810000020B2
:103C10008DF8130004A91C48FDF746FC3C200090D9
:103C2000002001900220039069460020FCF78DFEE1
:103C300069461020FCF789FE01210020FCF7A2FE56
:103C400001211020FCF79EFE05B000BD2DE9F041DA
:103C5000044625466E88AF88012E08D139460020DB
:103C6000FCF7FEFE01211020FCF7B0FE09E0022E59
:103C700007D139460020FCF7E6FE01210020FCF7C1
:103C8000A5FEBDE8F08100000008014008B5012153
:103C90000846FDF718FF01214FF40470FDF720FFDF
:103CA0000220ADF8000000208DF80300694680482E
:103CB000FDF7FAFB08BD00B591B07E48FCF700FFA8
:103CC0007D4806907D4807900020089010200990BC
:103CD00000200A9080200B9040000C9080000D90F6
:103CE00020200E9000020F900020109006A971482D
:103CF000FCF788FF012202216E48FCF7BAFF012180
:103D00006C48FCF7AAFF002001908DF80800012004
:103D10008DF809004FF460200390002004900120EA
:103D20008DF8140001A964484C38FCF7A0FB4FF44F
:103D30004040FDF73CFE052301220B215E484C3834
:103D4000FCF72DFC01215C484C38FCF7BCFB012141
:103D500059484C38FCF7C2FB57484C38FCF7D5FBA8
:103D600000BF55484C38FCF7D5FB0028F9D1524824
:103D70004C38FCF7D9FB00BF4F484C38FCF7D9FB57
:103D80000028F9D101214C484C38FCF7DCFB11B07C
:103D900000BD00B585B0002000908DF804008DF8BE
:103DA00005004FF4602002900020039001208DF860
:103DB0001000694640484C38FCF759FB4FF440402E
:103DC000FDF7F5FD01213C484C38FCF77CFB3A48F7
:103DD0004C38FCF79AFB00BF37484C38FCF79AFB8D
:103DE0000028F9D134484C38FCF79EFB00BF32481C
:103DF0004C38FCF79EFB0028F9D100212E484C38A6
:103E0000FCF761FB05B000BD10B5FFF73FFFFFF702
:103E100052FF10BD10B5012127484C38FCF753FB69
:103E2000012125484C38FCF78EFB10BD70B50446C7
:103E300014B1012C13D107E0052301220B211E48E8
:103E40004C38FCF7ACFB0BE00120FCF7CDFC072362
:103E50000122102118484C38FCF7A1FB00E000BFFC
:103E600000BF012114484C38FCF72DFB01211248FA
:103E70004C38FCF768FB00BF02210F484C38FCF7B8
:103E8000D3FC0028F8D00C484C38FCF7EFFB054673
:103E900004B100BF284670BD0022002104E007489D
:103EA00030F811000244491C1029F8D3100970475A
:103EB00000100140080002404C240140D41A0020A8
:103EC0000EB501210846FDF718FE42F21070ADF85C
:103ED00004004720ADF800000020ADF80600ADF862
:103EE000020069464FF08040FDF7D8FF01218807A6
:103EF000FEF7F6FD012211469007FEF746FB012171
:103F00008807FEF727FB0EBD10B5002410E0002047
:103F100004EB4401384A42F8210004EB440102EB6F
:103F20008101486004EB440102EB81018860641C5C
:103F3000202CECD3FFF7C4FF10BD30B502460B4672
:103F400000211AE001EB41002B4C04EB800080685B
:103F500090B9012001EB4104274D05EB8404A060DA
:103F600001EB41002C4644F8202001EB410004EB1A
:103F700080004360084630BD491C2029E2DB4FF039
:103F8000FF30F8E710B5002433E004EB44001A4991
:103F900001EB8000806801282AD104EB440001EB8A
:103FA000800040680A280CD304EB440001EB800039
:103FB00040680A3804EB44010F4A02EB8101486073
:103FC00016E0002004EB44010B4A02EB810148603B
:103FD00004EB440152F821008047002004EB440127
:103FE000054A42F8210004EB440102EB810188609C
:103FF000641C202CC9D310BDF41A00200EB5012179
:104000000520FDF76DFD0120ADF8080048208DF872
:104010000B0002A96848FDF747FA00210846FDF7A2
:1040200057FB01216448FDF7D0FA01280DD100901B
:1040300000208DF804000C208DF8050001208DF87B
:1040400006006846FCF772FE0DE00120009000209B
:104050008DF8040008208DF8050001208DF8060079
:104060006846FCF763FE0EBD0EB501211120FDF779
:1040700037FD4FF40050ADF8080048208DF80B00D4
:1040800002A94E48FDF710FA0D210220FDF720FB92
:104090004FF400514948FDF798FA01280ED140032A
:1040A000009000208DF804000C208DF80500012000
:1040B0008DF806006846FCF739FE0EE04FF400501C
:1040C000009000208DF8040008208DF805000120E4
:1040D0008DF806006846FCF729FE0EBD10B5FFF707
:1040E0008DFFFFF7C1FF10BD3549096801228240ED
:1040F0009143334A11607047314909680122824077
:1041000011432F4A116070477CB504460D462D4877
:104110002D49096840F831402B49096800EBC1007E
:10412000456029480068401C2749086000F01F00CE
:10413000086001A800231A4619460090234801F0A0
:104140001BFE7CBD10B52FE01E482149096850F8C0
:10415000310010B10D281DD10AE01A481C49096828
:1041600000EBC1004068012801D100F045F912E0E0
:1041700014481749096800EBC1004068012805D1BF
:1041800014A002F069FF00F0A2F802E016A002F00D
:1041900063FF00E000BF00BF0D480068401C0C49F1
:1041A000086000F01F0008600748006808490968B7
:1041B0008842C9D110BD0000000801400010014034
:1041C00000040140B41C002034000020A0020020A4
:1041D00038000020206B65795F31332072656C6593
:1041E0006173650D0A000000206B65795F31332033
:1041F00070726573730D0A0000EB8002510000BFFE
:104200000A00A1F10101FBD1704742F2107200FBDC
:1042100002F100BF0200A0F10100FBD170470000D5
:1042200070B500F08EF9202000F0AEF900F0F3F93F
:104230000546012D00D110E000240BE07F49085D08
:1042400000F0A2F900F0E7F90546012D00D104E0E5
:10425000601CC4B2082CF1DB00BF00F087F970BD10
:1042600070B5054600F06DF9212000F08DF900F0E1
:10427000D2F90646012E00D110E000240BE000F038
:10428000ABF92855032C02D100F0F7F901E000F05A
:10429000DEF9601CC4B2042CF1DB00BF00F066F94B
:1042A00070BD10B53220FFF7B0FF002063490870E1
:1042B00002204870FFF7B4FF0A20FFF7A6FFD020C6
:1042C0005E49087001204870FFF7AAFF10BD38B59D
:1042D000002000905948C07820F010005749C8705D
:1042E0000846007840F001000870FFF799FF05E0EC
:1042F0002820FFF78AFF6846FFF7B2FF9DF800000D
:1043000010F0400FF4D09DF8000000F003049DF879
:10431000010040EA04244AA002F09EFE21464CA07F
:1043200002F09AFE200A45498870CC7038BD38B535
:10433000054600200090A5F2663084B2C4F38700E1
:104340003E4988700846C07820F0C000C870084612
:10435000C07804F0030140EA81103849C87008466B
:10436000C07840F01000C870FFF75AFF05E0282021
:10437000FFF74BFF6846FFF773FF9DF8000010F052
:10438000400FF4D09DF8000000F003049DF80100F8
:1043900040EA0424214633A002F05EFE38BD10B589
:1043A00035A002F059FE202000F08FF918B938A08E
:1043B00002F052FE02E03CA002F04EFEFFF771FF59
:1043C00040A002F049FE83201C49C871FFF728FF76
:1043D0001A48C0793F490870084601783EA002F0AB
:1043E0003BFE1648007840F00200144908704FF474
:1043F0005B70FFF79CFF10BD08B500200090684679
:10440000FFF72EFF9DF80200411037A002F024FEB6
:104410009DF8001037A002F01FFE9DF8011039A092
:1044200002F01AFE9DF802103AA002F015FE9DF867
:1044300003103CA002F010FE08BD00003C0000206C
:104440000D0A20D1B0CCA8B3C9B9A6200D0A00002E
:10445000B5B1C7B0B9A4D7F7C6B5B5E3CEAAA3BA6C
:1044600025640000B5B1C7B0C6B5B5E3CEAA203A01
:104470002025640D0A0000000D0A207264613538A1
:1044800030376D20B2E2CAD4CAB5D1E9200D0A0096
:104490000D0A20726461353830376D20BCECB2E211
:1044A000B3C9B9A6200D0A000D0A2072646135381F
:1044B00030376D20BCECB2E2B2BBB3C9B9A6200D57
:1044C0000A0000000D0A20C9CFB5E7B3C9B9A6207C
:1044D0000D0A000044000020B5B1C7B0D2F4C1BF3E
:1044E000CEAA25640000000052535349203D2025E8
:1044F000640D0A007265675B305D203D20307825D1
:10450000780D0A007265675B315D203D20307825AB
:10451000780D0A007265675B325D203D203078259A
:10452000780D0A007265675B335D203D2030782589
:10453000780D0A00002001E0411CC8B21428FBDB02
:10454000704710B580206949086040200860FFF777
:10455000F1FF80206549091D0860FFF7EBFF40204F
:104560006249091D0860FFF7E5FF10BD10B5802006
:104570005E49091D08604020091F0860FFF7DAFF47
:1045800080205A49086010BD70B50446002520E01F
:1045900014F0800F03D080205449086003E080208D
:1045A0005249091D0860FFF7C5FF40204F490860C8
:1045B000FFF7C0FF40204D49091D0860072D02D1BB
:1045C0008020091F08606006040EFFF7B3FF681C17
:1045D000C5B2082DDCDB70BD70B50024002516E0E7
:1045E0006006040E402041490860FFF7A3FF3F48E2
:1045F0000838006810F0800F01D0601CC4B2402061
:104600003A49091D0860FFF795FF681CC5B2082DDF
:10461000E6DB204670BD10B5802034490860FFF706
:1046200089FF402031490860FFF784FF2F48083890
:10463000006810F0800F01D0012400E00024402029
:104640002A49091D0860FFF775FF204610BD10B507
:1046500080202649091D0860FFF76CFF4020234990
:104660000860FFF767FF40202049091D0860FFF739
:1046700061FF80201D49086010BD10B580201B49D6
:104680000860FFF757FF402018490860FFF752FF06
:1046900040201649091D0860FFF74CFF10BD08B502
:1046A00001210820FDF71CFAC020ADF8000003200E
:1046B0008DF8020014208DF8030069460B4810386D
:1046C000FCF7F2FEFFF752FF08BD70B50446FFF796
:1046D000E6FFFFF736FF2046FFF756FFFFF79BFF89
:1046E0000546FFF743FF284670BD0000100C01404F
:1046F00010B501214FF0C050FDF7FFF90120FDF783
:104700002AF8FCF7B5F80120FDF75AF900BF41205F
:10471000FDF7BFF80028FAD04FF48070FDF769F973
:104720000120FDF76CF9FDF7A7FAFDF79DFA0121CD
:104730000846FDF73DFAFDF797FA47F6FF70FDF7DB
:104740006DFAFDF791FA3C20FDF75BFA10BDF0B56C
:104750000346344DB3FBF5F2B3FBF5F605FB163417
:104760004FF4616594FBF5F58D604FF4616594FB42
:10477000F5F605FB16453C2695FBF6F54D604FF426
:10478000616594FBF5F605FB16453C2695FBF6F7AF
:1047900006FB17550D6040F2B27009E010F0030FF0
:1047A00002D14FF4B77501E040F26D15521B401C69
:1047B00010F0030F02D14FF4B77501E040F26D1510
:1047C0009542EBDD48614D69EE1705EB9676B61024
:1047D000B5EB860602D11D25134E7560012005E05C
:1047E000451E114E56F82550521B401C451E0E4EBC
:1047F00056F825509542F3DD1C2575600861551C5F
:10480000CD60F0BD10B5FDF7F3F904460749FFF799
:104810009EFF064803684268816805A002F01CFC00
:1048200010BD00008051010048000020B41D002090
:1048300020BFAABBFACAB1BCE43A202025302E32F0
:10484000643A25302E32643A25302E32640D0A0047
:104850001148124812481348134814481448154880
:104860001548164816481748174818481848194850
:1048700019481A481A481B481B481C481C481D4820
:104880001D481E481E481F481F48204820482148F0
:104890002148224800BF7047F87300085873000889
:1048A0005C73000860730008647300088473000878
:1048B000887300088C7300089073000894730008D4
:1048C000987300089C730008A0730008A473000884
:1048D000A8730008AC730008B0730008B473000834
:1048E000B8730008BC730008C0730008C4730008E4
:1048F000C8730008CC730008D0730008D473000894
:10490000D8730008DC730008E0730008E473000843
:10491000E8730008EC730008F0730008F4730008F3
:10492000002400BF19E000BF00BF02F00FFB0446E7
:1049300000BF00BFF8480068401CF7490860F7480E
:104940000068401CF549086000BF00BF204602F027
:1049500001FB00BF00BF02F07DFAE4E710B58AB0AA
:1049600004460020EC490860032000210591CDE9B0
:10497000070406910846EA490968EA4A1268EA4BC0
:104980001B68CDE90132CDE903103F200023AFF2CF
:104990006F02E6A10090EA4801F034F80AB010BDB9
:1049A00000210AE001EB4102E64B03EB820000220A
:1049B0000281026042604A1CD1B24029F2D37047A2
:1049C00070B5044602F047FA0020DF490870DF495D
:1049D0000870DF490870DF48006858B1DE48056894
:1049E00045B1DC48066803E0761E002028602D1DD6
:1049F000002EF9D100F04CFEFFF7D2FF204601F067
:104A00009DFB208800B170BD2046FFF7A7FF2088DE
:104A100000B1F8E7204601F0A9FC208800B1F2E7D8
:104A2000204600F049FF208800B1ECE7204600F066
:104A300005FD208800B1E6E7204600F03BFD208818
:104A400000B1E0E7204602F028F9208800B1DAE75B
:104A5000FFF7FEFE00BFD6E7BC480078012800D073
:104A60007047B9480078FA2800DBF9E7B6480078C3
:104A7000401CB549087000BFF2E710B50024B348E8
:104A80000078012800D010BD00BF02F05FFA044694
:104A900000BFAD48007828B900BF204602F05AFA9E
:104AA00000BFF0E7A8480078401EA74908700846F4
:104AB0000078002805DD00BF204602F04BFA00BF59
:104AC000E1E7A3480078002805DD00BF204602F09A
:104AD00041FA00BFD7E700F0E5FDA049087008469D
:104AE000007800EB4000974951F820009C4908608D
:104AF000084600689B490968884205D100BF2046E6
:104B000002F028FA00BFBEE797480068401C9649AB
:104B100008604FF080509549086000BF204602F0C1
:104B200019FA00BF00BFAEE710B500248648007830
:104B3000002800DD10BD86480078002800DDF9E778
:104B400000BF02F003FA044600BF00F0ABFD83494A
:104B500008700846007800EB40007A4951F82000C0
:104B60007F490860084600687E490968884205D187
:104B700000BF204602F0EEF900BFDBE77A4800688C
:104B8000401C794908604FF080507849086000BFA8
:104B9000204602F0DFF900BF00BFCBE770B5044646
:104BA00000256A480078012803D045F689602080F6
:104BB00070BD67480078FA2803DB45F209202080A1
:104BC000F6E700BF00BF02F0C1F9054600BF00BF15
:104BD0005F480078401C5E49087000BF00BF28464F
:104BE00002F0B8F900BF00BF0020208000BFDFE75F
:104BF00070B50446002555480078012803D045F6D5
:104C00008960208070BD5248007818B946F664501B
:104C10002080F7E700BF00BF02F098F9054600BF0B
:104C200000BF4B480078401E49490870084600788C
:104C300000280ADD00BF00BF284602F08BF900BF44
:104C400000BF46F663502080DCE700BF00BF284667
:104C500002F080F900BF00BFFFF766FF0020208050
:104C600000BFCFE710B5044638480078E8B900F037
:104C700019FD3A490870084600783D4908703748E0
:104C8000007800EB40002F4951F8200034490860BB
:104C9000084600683349086001202C49087002F07A
:104CA00097F843F69920208002E045F68A6020803C
:104CB00010BD01460020088047F2F8507047F0B55B
:104CC0008E6896F8375007893FB90127078100277A
:104CD0004F600F600160416052E007897F1C0781CF
:104CE000026806E0946894F83770AF4200DD02E095
:104CF0005268002AF6D100BF32B900274F604368DE
:104D00000B60596041603BE017689FBB1160002752
:104D10000F604A60016033E08000002098000020AE
:104D2000607300085C7300085873000875432F4FC8
:104D3000532D4949492049646C65205461736B00C7
:104D4000202E00209C2E00208400002085000020C2
:104D500093000020887300088473000891000020ED
:104D6000D8000020D4000020B000002004ED00E0B6
:104D700090000020FFE713680B604A6059601160E3
:104D8000F0BD10B5C287016300230AE000244C6027
:104D90000C600C614C610C83CC61886020315C1C20
:104DA000A3B29342F2DB10BD2DE9F041054695F820
:104DB000370000EB4000FE4901EB80042F69EE68EC
:104DC00087B946B9002020812060606095F83700DF
:104DD00000F08AFC0EE02089401E20810020306116
:104DE000266007E02089401E2081FE600EB96760C2
:104DF00000E0376100202861E860BDE8F08138B547
:104E000004460D4685B16B4602222946204601F034
:104E1000DCFABDF8000018B9032084F8360006E07B
:104E2000022084F8360002E0022084F83600204692
:104E3000FFF7BAFF38BD2DE9F04105460C4616468E
:104E40001F46DC48006880F834600020D9490968B2
:104E500081F835003946D7480068FFF7D0FF6CB1BC
:104E600004F10808EC6001222946D2480068FFF7E7
:104E700088FF29464046FFF722FF06E00020CD4983
:104E80000968C887CB4909680863BDE8F08110B597
:104E90000489012C03D100240460446011E00C68F3
:104EA00024B94A680024146002600AE04C6824B9FE
:104EB0000B6800245C60436003E00B684A685A603A
:104EC00013600489641E048100244C600C6010BDD2
:104ED0002DE9F0410446256BE68F0AE0D5F80C80F9
:104EE00008F1080729463846FFF7D1FF2035701E24
:104EF00086B2002EF2DC0020E0872063BDE8F0815E
:104F000030B50346086BCC8F08E0C5689D4202D1DE
:104F10000361C26104E02030651EACB2002CF4DCF9
:104F200000BF30BD10B590F8373003EB4303A04C01
:104F300004EB83010B893BB901230B810023C36080
:104F400003610860486009E00B895B1C0B810B68FA
:104F5000C360002303610A681061086010BD10B5CA
:104F600090F8373003EB4303914C04EB83010B893A
:104F70003BB901230B810023C360036108604860D3
:104F800008E00B895B1C0B810023C3604A68026147
:104F9000D060486010BD10B5044694F8370000F0AA
:104FA00093FB94F8370084490978884203D120465E
:104FB000FFF7D5FF02E02046FFF7B4FF10BD10B5A4
:104FC0000446204601F0D8F894F8360010F0040F9B
:104FD00002D12046FFF7DFFF10BD70B505460C4635
:104FE000164694F8360008284DD2DFE800F0040594
:104FF000080906072A2B00BF00BF00BF44E000BF1E
:1050000094F83400032804D1324621462846FFF79D
:1050100077FF0020E065A4F86000266415B1204603
:10502000FFF756FF2046FFF7CAFF002004F13404C3
:10503000A0704FF0010060704FF0000004F83409D8
:1050400022E000BF94F83400032804D13246214600
:105050002846FFF755FF0020E065A4F860002664AD
:1050600015B12046FFF734FF204601F085F80420F3
:1050700004F13404A0704FF0010060704FF00000A4
:1050800004F8340900E000BF00BF70BD2DE9F04313
:1050900004460F4684F83770256BB4F83E8013E061
:1050A000D5F80C9009F108063089012807D929465E
:1050B0003046FFF7ECFE29463046FFF700FE20356C
:1050C000A8F101001FFA80F8B8F1000FE8D1BDE89F
:1050D000F0830021016041600181704703895B1CFE
:1050E000038103684B6000230B60026802B111600A
:1050F00001600389012B00D14160704730B5034640
:10510000086BCC8F08E0C5689D4202D10361C26183
:1051100004E02030651EACB2002CF4DC00BF30BDD2
:1051200070B506460C46154694F83600082853D24A
:10513000DFE800F0040508090607292A00BF00BFC0
:1051400000BF4AE000BF94F83400032804D12A4687
:1051500021463046FFF7D2FF0020E065A4F860004A
:1051600025642046FFF7B4FE2046FFF728FF002005
:1051700004F13404A0704FF0020060704FF00000A2
:1051800004F8340929E000BF94F83400032804D15E
:105190002A4621463046FFF7B1FF0020E065A4F81B
:1051A00060002564204600F0E7FF204606E000008E
:1051B0009C2E0020D400002090000020FFF788FEE5
:1051C000042004F13404A0704FF0020060704FF02E
:1051D000000004F8340900E000BF00BF70BDF0B566
:1051E0000446059E086BCD8F0AE0C768A74204D12C
:1051F000046142610383C66104E020306F1EBDB2CA
:10520000002DF2DC00BFF0BD2DE9F84306460C4648
:1052100017469846089D94F8360008284BD2DFE8D8
:1052200000F0040508090607282900BF00BF00BFD9
:1052300042E000BF94F83400032807D143463A46C1
:10524000214630460095FFF7CAFF03E0E765A4F862
:105250006080256416B12046FFF73AFE2046FFF72E
:10526000AEFE002004F13404A070607004F834092C
:1052700022E000BF94F83400032807D143463A46A1
:10528000214630460095FFF7AAFF03E0E765A4F842
:1052900060802564204600F06FFF16B12046FFF7BE
:1052A00017FE042004F13404A0704FF00000607079
:1052B00004F8340900E000BF00BFBDE8F88310B572
:1052C00001460C8924B1012C03D0022C0CD101E041
:1052D00000BF14E008684A6802610024C4601461D9
:1052E000D0600A6048600AE008684A68C368002421
:1052F0001C61C4600261D0600B60486000BF00BFE9
:1053000010BD00002DE9FC5F0446894615461E4687
:10531000DDF830A000200090A8462F46701E80B215
:1053200001904FF0000B07E05744C8F80070B846F2
:105330000BF101001FFA80FB01988345F4DB00208C
:10534000C8F8000000BF00BF01F000FE009000BFE1
:1053500000BF3D482060C4F808906560E560A68203
:105360006682A4F810A039480088401C374908809C
:1053700000BF00BF009801F0EDFD00BF00BF00219D
:105380000D980180BDE8FC9F2DE9F04104460D46D3
:10539000002700BF00BF01F0D9FD074600BF00BFD6
:1053A000A08A60B900BF00BF384601F0D3FD00BF3E
:1053B00000BF45F2C26028800020BDE8F081E668A9
:1053C0003068E060A08A401EA08200BF00BF38465F
:1053D00001F0C0FD00BF00BF002028803046ECE790
:1053E0002DE9F04104460D461646002700BF00BFD8
:1053F00001F0ACFD074600BF00BFA08A618A884269
:105400000BDB00BF00BF384601F0A4FD00BF00BFAA
:1054100045F2BA603080BDE8F081E0682860E56060
:10542000A08A401CA08200BF00BF384601F092FD58
:1054300000BF00BF0020308000BFECE70021034A1E
:1054400011800180704700004D454D2086000020EE
:1054500070B502460B461046114610315E1EB5B2BD
:10546000002408E00160002646600681C660103016
:105470001031661CB4B2AC42F4DB00260660466014
:105480000681C66070BD70B504460D4616462946B5
:105490002046FFF7DDFF7B480168681E04EB001023
:1054A000016078480460808828447649888000201C
:1054B000308070BD10B50446734801887348006899
:1054C000FFF7C6FF714800686E4908606E480088A3
:1054D00088800020C880208010BD70B5044600255B
:1054E00000BF00BF01F032FD054600BF00BF002035
:1054F000A08100BF00BF284601F02CFD00BF00BF07
:1055000070BD10B5014648894B89002B17DD0A682C
:105510005C4B1B6813605B4C4B6823602346DB8845
:105520004C891B1B574CE38023469B884C892344A2
:10553000544CA38000234B818B810B604B6010BDCA
:105540000181002242818281026042607047F0B591
:1055500004460D46608940B90020288002B11060E1
:1055600046F2925018800020F0BD61684E680889AC
:1055700028800AB1C868106008686060606818B95F
:1055800000202060608102E06089401E60813D480B
:10559000006808603B4801608088401C394FB88033
:1055A0003846C088401EF880002018803046DBE76F
:1055B0002DE9F0410D46DDE90674B0F80AC0B0F8F7
:1055C0000880C44505DB46F2935CA4F800C0BDE842
:1055D000F081DFF8B0C0BCF804C0BCF1000F04D10A
:1055E00045F21D7CA4F800C0F1E7DFF898C0DCF8B4
:1055F0000010DFF89080D1F800C0C8F800C0C446A1
:10560000BCF804C0ACF1010CA8F804C0C446BCF856
:1056100006C00CF1010CA8F806C0B0F80AC0BCF135
:10562000000F06D1016041604FF0010CA0F80AC0E4
:1056300015E013F0100F07D1066831604FF0000C31
:10564000C1F800C0016004E0D0F804C0C1F800C097
:105650004160B0F80AC00CF1010CA0F80AC0B0F823
:105660000AC0B0F80C80C44503DDB0F80AC0A0F849
:105670000CC04D600A81CF604FF0000CA4F800C050
:1056800000BFA4E78800002090730008987300080A
:10569000002004E000211C4A42F82010401C02288F
:1056A000F8D3704770B50025174C03E005F12000D2
:1056B000C5B2241D20680028F8D0206801F04DFCF8
:1056C0002844C5B2284670BD30B5420900F01F031A
:1056D0000121C3F11F04A1400B4C54F822400C439C
:1056E000094D45F8224030BD30B5420900F01F0396
:1056F0000121C3F11F04A140034C54F822408C4304
:10570000014D45F8224030BD7800002010B5044618
:1057100000208C4908608C4908608C49086000F0C2
:105720002BFF01F01FFB0020208010BDF8B50446C0
:1057300000266A460021022000F04AFFBDF8000062
:1057400018B1BDF800002080F8BD00BF00BF01F017
:10575000FDFB064600BF00BF00207D49086000BF7A
:1057600000BF304601F0F6FB00BF00BF00257948BE
:10577000006879490968884205D976480068764901
:105780000968B0FBF1F525B9724800680A21B0FB41
:10579000F1F56A460021284600F01AFF00BF00BF5D
:1057A00001F0D4FB064600BF00BF00206549086039
:1057B000674800686949086001206949087000BFAE
:1057C00000BF304601F0C6FB00BF00BF00202080B4
:1057D00000BFB9E708B5002700BF06E05E490968C9
:1057E00048006A46002100F0F3FE5D480078012879
:1057F000F4D16846FFF78AFF0024564800685649EE
:105800000968884205D95348006853490968B0FBC4
:10581000F1F424B94F4800680A21B0FBF1F44AE0E2
:10582000002600BF00BF01F091FB074600BF00BF8C
:10583000474800684B49086000204549086000BFA0
:1058400000BF384601F086FB00BF00BF4348006838
:1058500044490968884213D94048006860B141480A
:105860000068642148433D490968B0FBF1F0C0F18C
:1058700064003D49087006E064203B49087002E07E
:1058800064203949087001F0F0FA3848007801289E
:1058900005D10020354908706846FFF737FF75428B
:1058A00028480068854201D9264805606A460021DB
:1058B000204600F08DFEB3E710B58AB00446002004
:1058C0002349086027490860244908602449087072
:1058D000264908702648006820B946F62C602080CA
:1058E0000AB010BD2348006823490968884203D2E2
:1058F00046F62D602080F3E7204800783F2803D348
:1059000046F273202080EBE7032000210591CDE9CA
:1059100007040691084617490968194A1268144B8A
:105920001B68CDE90132CDE903101448007800234B
:10593000AFF25F1213A10090174800F063F800BFA8
:10594000CEE70000A8000020BC000020C40000201A
:1059500098000020B8730008A07300089C00002085
:10596000A4000020A000002094000020AC00002033
:10597000A4730008AC730008B47300089C7300089B
:10598000A873000875432F4F532D4949492053747C
:105990006174205461736B009C31002010B5044683
:1059A00000202060A0606060E06020616061A06114
:1059B000E061FBA0206200206062A062E0622064DF
:1059C000E065A4F86000002104F16400FFF7B8FD71
:1059D000002004F134042061606060642064208150
:1059E0004FF0004060614FF00000A061E061206274
:1059F000606220706070A0704FF04000E070A4F111
:105A0000340410BD2DE9FF4F85B0044690469946F9
:105A1000DDF854A0199E139D0020039012983F2892
:105A200009D1E148844206D046F273211A980180D8
:105A300009B0BDE8F08F2046FFF7B0FF00211A98AB
:105A4000018016F0010F0CD016F0020F09D02F467E
:105A50008B4604E0002038603F1D0BF1010BD3455D
:105A6000F8D3149805EB80000490CDE900A62A46EF
:105A700049464046049B01F0FCF90746C4F82880DB
:105A8000C4F82C9006982062129884F8370027609A
:105A90000498A06017986065189860606562C4F803
:105AA00038A0A68704F164001699FFF749FD204647
:105AB00001F0DCF900BF00BF01F048FA039000BF1D
:105AC00000BF94F83700FFF7FFFD2046FFF747FAC5
:105AD000B6480088401CB5490880B54800780128C0
